20240628-03:45:05.000765000 : 8=FIX.4.4|9=267|35=A|34=1|49=CLIENT1|52=20240628-03:45:04.998|56=DERIBITSERVER|96=1719546304998.YWxiZXJ0X3Rlc3Rfbm9uY2VfMTIzNDU2Nzg5MTAxMTEyMTMxNDE1MTYxNzE4MTkyMA==|98=0|108=30|553=v06Q_1i0|554=ODE3NjdhMzBmYzJlODdmODZiMzA2YWNiMWUwZTQxMzBmNTVhNThmZmU2MTVjODU4NmY0ZTlkZDFiOWViMjM4Mg==|10=212|
20240628-03:45:05.293090000 : 8=FIX.4.4|9=86|35=5|49=DERIBITSERVER|56=CLIENT1|34=1|52=20240628-03:45:05.153|58=invalid_credentials|10=042|
20240628-03:45:05.296435000 : 8=FIX.4.4|9=63|35=5|34=2|49=CLIENT1|52=20240628-03:45:05.295|56=DERIBITSERVER|10=174|
20240628-03:45:34.938292000 : 8=FIX.4.4|9=267|35=A|34=4|49=CLIENT1|52=20240628-03:45:34.936|56=DERIBITSERVER|96=1719546334936.YWxiZXJ0X3Rlc3Rfbm9uY2VfMTIzNDU2Nzg5MTAxMTEyMTMxNDE1MTYxNzE4MTkyMA==|98=0|108=30|553=v06Q_1i0|554=OWEzZjg4NGZkNTk4YTdlOGY3ODBkM2E0Zjk1ZWUyNTkxYzczNGRhZDRkMmVlYzY2OTAxZDk5ZmYzYWViM2RlOQ==|10=200|
20240628-03:45:35.230764000 : 8=FIX.4.4|9=72|35=2|49=DERIBITSERVER|56=CLIENT1|34=1|52=20240628-03:45:35.091|7=1|16=4|10=038|
20240628-03:48:27.850346000 : 8=FIX.4.4|9=267|35=A|34=6|49=CLIENT1|52=20240628-03:48:27.846|56=DERIBITSERVER|96=1719546507846.YWxiZXJ0X3Rlc3Rfbm9uY2VfMTIzNDU2Nzg5MTAxMTEyMTMxNDE1MTYxNzE4MTkyMA==|98=0|108=30|553=v06Q_1i0|554=NGMxYWYyNWUxZjc5NDcyMGY1ZjcyZWMwNjMxNDk5Nzg4YjQ5ZDkzOTUzMGIzYWIzYjYxYmE4N2E1MjI0MDQzZA==|10=220|
20240628-03:48:28.144383000 : 8=FIX.4.4|9=72|35=2|49=DERIBITSERVER|56=CLIENT1|34=1|52=20240628-03:48:28.010|7=1|16=6|10=036|
20240628-04:02:50.452714000 : 8=FIX.4.4|9=243|35=A|34=8|49=CLIENT1|52=20240628-04:02:50.449|56=DERIBITSERVER|96=1719547370449.BLTy3qzaa9dJ80sz10jtFvVtnnU6EwnMWTAqcMH6ces=|98=0|108=30|553=v06Q_1i0|554=Y2EyOWU5MzEwOTc1NzVmOTc0OTI4YzRiYTM5MGJjZjI0MTM4ZWRhM2U3NzAzZmIzZGQzYzg3ODc1YmZiNTU3Zg==|10=155|
20240628-04:02:50.746915000 : 8=FIX.4.4|9=72|35=2|49=DERIBITSERVER|56=CLIENT1|34=1|52=20240628-04:02:50.613|7=1|16=8|10=033|
20240628-05:45:38.775618000 : 8=FIX.4.4|9=372|35=A|34=10|49=CLIENT1|52=20240628-05:45:38.772|56=DERIBITSERVER|96=1719553538772.eCHbs5ioMDuWVirJCaiY+C/NKCdsOj/svHgBnfkgt6EVlid0GW0JEFLLFX/+ZCaZao/TEBAPGwZ05Ui7c6+vQ8ZEU3I9Qo8ha/u6esVBb7lDd4MYC+EDdNhSQBlfCqFhqSvyMXWI1GFqMzDNQFVcNiR6J2bCHzU0y/i+MzE1QzA=|98=0|108=30|553=v06Q_1i0|554=MmFiYzczMzcyZTAzMDM4YzcxM2QzYmExM2Y1YjA3NDgzZWFmYzBhYWNmYmMyNzViYTdlMWY1YWI4MzkwMjZkZg==|10=016|
20240628-05:45:39.070360000 : 8=FIX.4.4|9=73|35=2|49=DERIBITSERVER|56=CLIENT1|34=1|52=20240628-05:45:38.940|7=1|16=10|10=092|
20240628-05:46:18.214985000 : 8=FIX.4.4|9=372|35=A|34=12|49=CLIENT1|52=20240628-05:46:18.211|56=DERIBITSERVER|96=1719553578211.qha3FjrB6NJvJbsiNJSVrSMS3uc4r8fPICNe//+ZPqJrl6gomf7sg4pJy5a9DKlQOHNRnsfezRwRF2Oq5jISfwCv1NEEdBCtgh2NyfHYSjGItbWfnomYQSInJmhQ9lQHIpoO/HolT4dpGPZ2iaPa0DttG2yUBT/c32lnMEbJR+k=|98=0|108=30|553=v06Q_1i0|554=NWFkZjRmYjIxODViYTgwMGVlMGY2YjQxZGI2NmRiNjFmNmVkZGUwMGViZmJlZTcxZGRhYzAxOTNkMjdmNjNiMQ==|10=094|
20240628-05:46:18.509157000 : 8=FIX.4.4|9=73|35=2|49=DERIBITSERVER|56=CLIENT1|34=1|52=20240628-05:46:18.379|7=1|16=12|10=099|
