20240703-07:30:59.078535000 : 8=FIX.4.4|9=254|35=A|34=1|49=TestClient|52=20240703-07:30:59.077|56=DERIBITSERVER|96=1709791993000.dGVzdF9kZXJpYml0X3Rlc3RuZXRfaW5jcmVtZW50YWxfMDAwMDA=|98=0|108=30|553=v06Q_1i0|554=YWI4YzIzZTIzZTIwMjY0ZTVmMmEyMjM1MThmOTIwMjM5NTEwZTY4OTM0YzMwMWEzZGE1MTU3ODliYjNmMDU3OA==|10=067|
20240703-07:30:59.381594000 : 8=FIX.4.4|9=89|35=5|49=DERIBITSERVER|56=TestClient|34=1|52=20240703-07:30:59.368|58=invalid_credentials|10=069|
20240703-07:30:59.384514000 : 8=FIX.4.4|9=66|35=5|34=2|49=TestClient|52=20240703-07:30:59.383|56=DERIBITSERVER|10=191|
20240703-07:37:13.823403000 : 8=FIX.4.4|9=254|35=A|34=4|49=TestClient|52=20240703-07:37:13.821|56=DERIBITSERVER|96=1709791993000.dGVzdF9kZXJpYml0X3Rlc3RuZXRfaW5jcmVtZW50YWxfMDAwMDA=|98=0|108=30|553=v06Q_1i0|554=YWI4YzIzZTIzZTIwMjY0ZTVmMmEyMjM1MThmOTIwMjM5NTEwZTY4OTM0YzMwMWEzZGE1MTU3ODliYjNmMDU3OA==|10=064|
20240703-07:37:14.126035000 : 8=FIX.4.4|9=75|35=2|49=DERIBITSERVER|56=TestClient|34=1|52=20240703-07:37:14.108|7=1|16=4|10=051|
20240703-07:38:26.975621000 : 8=FIX.4.4|9=254|35=A|34=6|49=TestClient|52=20240703-07:38:26.974|56=DERIBITSERVER|96=1709791993000.dGVzdF9kZXJpYml0X3Rlc3RuZXRfaW5jcmVtZW50YWxfMDAwMDA=|98=0|108=30|553=v06Q_1i0|554=ZTdkZTk5ZDQ0NjAyN2M0ODg0NThhNjI0YzU2ZTAxMTEwZmI0YjYxOWFkOGEwOGVlNjMzNmI0OTYwMjg4Zjc3MA==|10=053|
20240703-07:38:27.278506000 : 8=FIX.4.4|9=75|35=2|49=DERIBITSERVER|56=TestClient|34=1|52=20240703-07:38:27.260|7=1|16=6|10=057|
20240703-07:48:33.029574000 : 8=FIX.4.4|9=254|35=A|34=8|49=TestClient|52=20240703-07:48:33.028|56=DERIBITSERVER|96=1709791993000.dGVzdF9kZXJpYml0X3Rlc3RuZXRfaW5jcmVtZW50YWxfMDAwMDA=|98=0|108=30|553=v06Q_1i0|554=ZTdkZTk5ZDQ0NjAyN2M0ODg0NThhNjI0YzU2ZTAxMTEwZmI0YjYxOWFkOGEwOGVlNjMzNmI0OTYwMjg4Zjc3MA==|10=044|
20240703-07:48:33.332026000 : 8=FIX.4.4|9=75|35=2|49=DERIBITSERVER|56=TestClient|34=1|52=20240703-07:48:33.308|7=1|16=8|10=060|
20240703-07:56:44.360526000 : 8=FIX.4.4|9=211|35=A|34=10|49=TestClient|52=20240703-07:56:44.357|56=DERIBITSERVER|96=1709791993000.dGVzdF9kZXJpYml0X3Rlc3RuZXRfaW5jcmVtZW50YWxfMDAwMDA=|98=0|108=30|553=v06Q_1i0|554=596Z1EYCfEiEWKYkxW4BEQ+0thmtigjuYza0lgKI93A=|10=135|
20240703-07:56:44.664061000 : 8=FIX.4.4|9=76|35=2|49=DERIBITSERVER|56=TestClient|34=1|52=20240703-07:56:44.635|7=1|16=10|10=106|
20240703-07:59:40.868084000 : 8=FIX.4.4|9=211|35=A|34=12|49=TestClient|52=20240703-07:59:40.866|56=DERIBITSERVER|96=1709791993000.dGVzdF9kZXJpYml0X3Rlc3RuZXRfaW5jcmVtZW50YWxfMDAwMDA=|98=0|108=30|553=v06Q_1i0|554=596Z1EYCfEiEWKYkxW4BEQ+0thmtigjuYza0lgKI93A=|10=141|
20240703-07:59:41.170826000 : 8=FIX.4.4|9=76|35=2|49=DERIBITSERVER|56=TestClient|34=1|52=20240703-07:59:41.141|7=1|16=12|10=100|
20240703-08:01:26.096400000 : 8=FIX.4.4|9=211|35=A|34=14|49=TestClient|52=20240703-08:01:26.094|56=DERIBITSERVER|96=1709791993000.dGVzdF9kZXJpYml0X3Rlc3RuZXRfaW5jcmVtZW50YWxfMDAwMDA=|98=0|108=30|553=v06Q_1i0|554=596Z1EYCfEiEWKYkxW4BEQ+0thmtigjuYza0lgKI93A=|10=128|
20240703-08:01:26.398955000 : 8=FIX.4.4|9=76|35=2|49=DERIBITSERVER|56=TestClient|34=1|52=20240703-08:01:26.368|7=1|16=14|10=104|
20240703-08:10:28.596990000 : 8=FIX.4.4|9=212|35=A|34=16|49=TestClient|52=20240703-08:10:28.595|56=DERIBITSERVER|96=1709791993000.dGVzdF9kZXJpYml0X3Rlc3RuZXRfaW5jcmVtZW50YWxfMDAwMDA=|98=0|108=30|553=client_id|554=596Z1EYCfEiEWKYkxW4BEQ+0thmtigjuYza0lgKI93A=|10=224|
20240703-08:10:28.899914000 : 8=FIX.4.4|9=76|35=2|49=DERIBITSERVER|56=TestClient|34=1|52=20240703-08:10:28.865|7=1|16=16|10=110|
20240703-08:19:14.225116000 : 8=FIX.4.4|9=211|35=A|34=18|49=TestClient|52=20240703-08:19:14.223|56=DERIBITSERVER|96=1709791993000.dGVzdF9kZXJpYml0X3Rlc3RuZXRfaW5jcmVtZW50YWxfMDAwMDA=|98=0|108=1|553=client_id|554=596Z1EYCfEiEWKYkxW4BEQ+0thmtigjuYza0lgKI93A=|10=167|
20240703-08:19:14.528202000 : 8=FIX.4.4|9=76|35=2|49=DERIBITSERVER|56=TestClient|34=1|52=20240703-08:19:14.489|7=1|16=18|10=118|
20240703-08:22:00.207295000 : 8=FIX.4.4|9=209|35=A|34=20|49=TestClient|52=20240703-08:22:00.203|56=DERIBITSERVER|96=1709791993000.dGVzdF9kZXJpYml0X3Rlc3RuZXRfaW5jcmVtZW50YWxfMDAwMDA=|98=0|108=1|553=API-KEY|554=596Z1EYCfEiEWKYkxW4BEQ+0thmtigjuYza0lgKI93A=|10=223|
20240703-08:22:00.509888000 : 8=FIX.4.4|9=76|35=2|49=DERIBITSERVER|56=TestClient|34=1|52=20240703-08:22:00.470|7=1|16=20|10=090|
20240703-08:23:54.273204000 : 8=FIX.4.4|9=209|35=A|34=22|49=TestClient|52=20240703-08:23:54.269|56=DERIBITSERVER|96=1709791993000.dGVzdF9kZXJpYml0X3Rlc3RuZXRfaW5jcmVtZW50YWxfMDAwMDA=|98=0|108=1|553=API-KEY|554=596Z1EYCfEiEWKYkxW4BEQ+0thmtigjuYza0lgKI93A=|10=247|
20240703-08:23:54.575682000 : 8=FIX.4.4|9=76|35=2|49=DERIBITSERVER|56=TestClient|34=1|52=20240703-08:23:54.536|7=1|16=22|10=105|
20240703-08:26:33.334416000 : 8=FIX.4.4|9=209|35=A|34=24|49=TestClient|52=20240703-08:26:33.332|56=DERIBITSERVER|96=1709791993000.dGVzdF9kZXJpYml0X3Rlc3RuZXRfaW5jcmVtZW50YWxfMDAwMDA=|98=0|108=1|553=API-KEY|554=596Z1EYCfEiEWKYkxW4BEQ+0thmtigjuYza0lgKI93A=|10=240|
20240703-08:26:33.636775000 : 8=FIX.4.4|9=76|35=2|49=DERIBITSERVER|56=TestClient|34=1|52=20240703-08:26:33.596|7=1|16=24|10=113|
20240703-10:28:11.632339000 : 8=FIX.4.4|9=204|35=A|34=1|49=TestClient|52=08060403-55:09:14|56=DERIBITSERVER|96=1709791993000.dGVzdF9kZXJpYml0X3Rlc3RuZXRfaW5jcmVtZW50YWxfMDAwMDA=|98=0|108=1|553=API-KEY|554=596Z1EYCfEiEWKYkxW4BEQ+0thmtigjuYza0lgKI93A=|10=245|
20240703-10:28:11.934147000 : 8=FIX.4.4|9=89|35=5|49=DERIBITSERVER|56=TestClient|34=1|52=20240703-10:28:11.876|58=invalid_credentials|10=062|
20240703-10:28:11.935681000 : 8=FIX.4.4|9=67|35=5|34=27|49=TestClient|52=20240703-10:28:11.934|56=DERIBITSERVER|10=238|
20240703-10:28:41.636076000 : 8=FIX.4.4|9=204|35=A|34=1|49=TestClient|52=08060403-55:09:14|56=DERIBITSERVER|96=1709791993000.dGVzdF9kZXJpYml0X3Rlc3RuZXRfaW5jcmVtZW50YWxfMDAwMDA=|98=0|108=1|553=API-KEY|554=596Z1EYCfEiEWKYkxW4BEQ+0thmtigjuYza0lgKI93A=|10=245|
20240703-10:28:41.937948000 : 8=FIX.4.4|9=89|35=5|49=DERIBITSERVER|56=TestClient|34=1|52=20240703-10:28:41.880|58=invalid_credentials|10=060|
20240703-10:28:41.939742000 : 8=FIX.4.4|9=67|35=5|34=30|49=TestClient|52=20240703-10:28:41.938|56=DERIBITSERVER|10=239|
20240703-10:29:11.674531000 : 8=FIX.4.4|9=204|35=A|34=1|49=TestClient|52=08060403-55:09:14|56=DERIBITSERVER|96=1709791993000.dGVzdF9kZXJpYml0X3Rlc3RuZXRfaW5jcmVtZW50YWxfMDAwMDA=|98=0|108=1|553=API-KEY|554=596Z1EYCfEiEWKYkxW4BEQ+0thmtigjuYza0lgKI93A=|10=245|
20240703-10:29:11.976512000 : 8=FIX.4.4|9=89|35=5|49=DERIBITSERVER|56=TestClient|34=1|52=20240703-10:29:11.918|58=invalid_credentials|10=060|
20240703-10:29:11.978440000 : 8=FIX.4.4|9=67|35=5|34=33|49=TestClient|52=20240703-10:29:11.977|56=DERIBITSERVER|10=243|
20240703-10:36:37.651865000 : 8=FIX.4.4|9=204|35=A|34=1|49=TestClient|52=20200123-55:09:14|56=DERIBITSERVER|96=1709791993000.dGVzdF9kZXJpYml0X3Rlc3RuZXRfaW5jcmVtZW50YWxfMDAwMDA=|98=0|108=1|553=API-KEY|554=596Z1EYCfEiEWKYkxW4BEQ+0thmtigjuYza0lgKI93A=|10=234|
20240703-10:36:37.954104000 : 8=FIX.4.4|9=89|35=5|49=DERIBITSERVER|56=TestClient|34=1|52=20240703-10:36:37.896|58=invalid_credentials|10=071|
20240703-10:36:37.955486000 : 8=FIX.4.4|9=67|35=5|34=36|49=TestClient|52=20240703-10:36:37.954|56=DERIBITSERVER|10=247|
20240703-10:39:17.507388000 : 8=FIX.4.4|9=204|35=A|34=1|49=TestClient|52=08060403-55:09:14|56=DERIBITSERVER|96=1709791993000.dGVzdF9kZXJpYml0X3Rlc3RuZXRfaW5jcmVtZW50YWxfMDAwMDA=|98=0|108=1|553=API-KEY|554=596Z1EYCfEiEWKYkxW4BEQ+0thmtigjuYza0lgKI93A=|10=245|
20240703-10:39:17.809715000 : 8=FIX.4.4|9=89|35=5|49=DERIBITSERVER|56=TestClient|34=1|52=20240703-10:39:17.751|58=invalid_credentials|10=062|
20240703-10:39:17.812756000 : 8=FIX.4.4|9=67|35=5|34=39|49=TestClient|52=20240703-10:39:17.810|56=DERIBITSERVER|10=242|
20240703-10:41:12.950918000 : 8=FIX.4.4|9=204|35=A|34=1|49=TestClient|52=01680402-55:09:14|56=DERIBITSERVER|96=1709791993000.dGVzdF9kZXJpYml0X3Rlc3RuZXRfaW5jcmVtZW50YWxfMDAwMDA=|98=0|108=1|553=API-KEY|554=596Z1EYCfEiEWKYkxW4BEQ+0thmtigjuYza0lgKI93A=|10=245|
20240703-10:41:13.253209000 : 8=FIX.4.4|9=89|35=5|49=DERIBITSERVER|56=TestClient|34=1|52=20240703-10:41:13.195|58=invalid_credentials|10=053|
20240703-10:41:13.254888000 : 8=FIX.4.4|9=67|35=5|34=42|49=TestClient|52=20240703-10:41:13.253|56=DERIBITSERVER|10=226|
20240703-10:41:32.335467000 : 8=FIX.4.4|9=204|35=A|34=1|49=TestClient|52=01680402-55:09:14|56=DERIBITSERVER|96=1709791993000.dGVzdF9kZXJpYml0X3Rlc3RuZXRfaW5jcmVtZW50YWxfMDAwMDA=|98=0|108=1|553=API-KEY|554=596Z1EYCfEiEWKYkxW4BEQ+0thmtigjuYza0lgKI93A=|10=245|
20240703-10:41:32.638087000 : 8=FIX.4.4|9=89|35=5|49=DERIBITSERVER|56=TestClient|34=1|52=20240703-10:41:32.580|58=invalid_credentials|10=052|
20240703-10:41:32.639890000 : 8=FIX.4.4|9=67|35=5|34=45|49=TestClient|52=20240703-10:41:32.638|56=DERIBITSERVER|10=237|
20240703-10:46:14.549988000 : 8=FIX.4.4|9=204|35=A|34=1|49=TestClient|52=01680402-55:09:14|56=DERIBITSERVER|96=1709791993000.dGVzdF9kZXJpYml0X3Rlc3RuZXRfaW5jcmVtZW50YWxfMDAwMDA=|98=0|108=1|553=API-KEY|554=596Z1EYCfEiEWKYkxW4BEQ+0thmtigjuYza0lgKI93A=|10=245|
20240703-10:46:14.852184000 : 8=FIX.4.4|9=89|35=5|49=DERIBITSERVER|56=TestClient|34=1|52=20240703-10:46:14.794|58=invalid_credentials|10=064|
20240703-10:46:14.853823000 : 8=FIX.4.4|9=67|35=5|34=48|49=TestClient|52=20240703-10:46:14.852|56=DERIBITSERVER|10=243|
20240703-10:46:25.678575000 : 8=FIX.4.4|9=204|35=A|34=1|49=TestClient|52=08060403-55:09:14|56=DERIBITSERVER|96=1709791993000.dGVzdF9kZXJpYml0X3Rlc3RuZXRfaW5jcmVtZW50YWxfMDAwMDA=|98=0|108=1|553=API-KEY|554=596Z1EYCfEiEWKYkxW4BEQ+0thmtigjuYza0lgKI93A=|10=245|
20240703-10:46:25.980939000 : 8=FIX.4.4|9=89|35=5|49=DERIBITSERVER|56=TestClient|34=1|52=20240703-10:46:25.923|58=invalid_credentials|10=060|
20240703-10:46:25.982535000 : 8=FIX.4.4|9=67|35=5|34=51|49=TestClient|52=20240703-10:46:25.981|56=DERIBITSERVER|10=242|
20240703-10:51:28.437147000 : 8=FIX.4.4|9=204|35=A|34=1|49=TestClient|52=20200123-14:09:55|56=DERIBITSERVER|96=1709791993000.dGVzdF9kZXJpYml0X3Rlc3RuZXRfaW5jcmVtZW50YWxfMDAwMDA=|98=0|108=1|553=API-KEY|554=596Z1EYCfEiEWKYkxW4BEQ+0thmtigjuYza0lgKI93A=|10=234|
20240703-10:51:28.739555000 : 8=FIX.4.4|9=89|35=5|49=DERIBITSERVER|56=TestClient|34=1|52=20240703-10:51:28.682|58=invalid_credentials|10=061|
20240703-10:51:28.741158000 : 8=FIX.4.4|9=67|35=5|34=54|49=TestClient|52=20240703-10:51:28.740|56=DERIBITSERVER|10=237|
20240703-10:57:05.017928000 : 8=FIX.4.4|9=204|35=A|34=1|49=TestClient|52=20200123-14:09:55|56=DERIBITSERVER|96=1709791993000.dGVzdF9kZXJpYml0X3Rlc3RuZXRfaW5jcmVtZW50YWxfMDAwMDA=|98=0|108=1|553=API-KEY|554=596Z1EYCfEiEWKYkxW4BEQ+0thmtigjuYza0lgKI93A=|10=234|
20240703-10:57:05.323283000 : 8=FIX.4.4|9=89|35=5|49=DERIBITSERVER|56=TestClient|34=1|52=20240703-10:57:05.265|58=invalid_credentials|10=059|
20240703-10:57:05.324669000 : 8=FIX.4.4|9=67|35=5|34=57|49=TestClient|52=20240703-10:57:05.323|56=DERIBITSERVER|10=238|
20240703-11:19:06.166415000 : 8=FIX.4.4|9=208|35=A|34=1|49=TestClient|52=20200123-14:09:55.638|56=DERIBITSERVER|96=1709791993000.dGVzdF9kZXJpYml0X3Rlc3RuZXRfaW5jcmVtZW50YWxfMDAwMDA=|98=0|108=1|553=API-KEY|554=596Z1EYCfEiEWKYkxW4BEQ+0thmtigjuYza0lgKI93A=|10=189|
20240703-11:19:06.468831000 : 8=FIX.4.4|9=89|35=5|49=DERIBITSERVER|56=TestClient|34=1|52=20240703-11:19:06.413|58=invalid_credentials|10=054|
20240703-11:19:06.470571000 : 8=FIX.4.4|9=67|35=5|34=60|49=TestClient|52=20240703-11:19:06.469|56=DERIBITSERVER|10=243|
