20240628-06:02:23.158838000 : 8=FIX.4.4|9=377|35=A|34=1|49=Alert_Testing|52=20240628-06:02:23.157|56=DERIBITSERVER|96=1719554543157.e8UWG9yfKxSboTEIDqIs8nxnw2vSuQaeSqFlRBPBiXm5VHaAyfX1/BEXthw3xBVYmhxjiaOLZDUcpjAV+hRtVlof9QwuFzX8qYSyH25R6UVNwOzkf/p57c0o+bdtwdTMMjMhgD/uv4x0BnYVFHYcwNUHpMY+IismunYbRhFwJCc=|98=0|108=30|553=v06Q_1i0|554=YzNjNmVkYmU0Mjg1ZDkxODk1Njk2ZTk3NmU0NWI3OGYwODA2NzIxNTljNWViNjFjMjE3ZTg2ZWY2OWIyMjlkNA==|10=177|
20240628-06:02:23.454356000 : 8=FIX.4.4|9=92|35=5|49=DERIBITSERVER|56=Alert_Testing|34=1|52=20240628-06:02:23.328|58=invalid_credentials|10=108|
20240628-06:02:23.457580000 : 8=FIX.4.4|9=69|35=5|34=2|49=Alert_Testing|52=20240628-06:02:23.454|56=DERIBITSERVER|10=242|
20240628-06:05:21.063095000 : 8=FIX.4.4|9=377|35=A|34=4|49=Alert_Testing|52=20240628-06:05:21.059|56=DERIBITSERVER|96=1719554721059.sjn8zapFh85lTPvkJ4LEvv5LFdQdmhJUbhl5qCG/SiTgJr+AKLgZ8jM+IwU++ky6ZLV38avU56fXulF5YIBAihEp9WQdtn1FEIkgSbvnBbmGOZDhikB0MpGVrYXroOxnAwKjsWbFa0UjM4FbYrO0ZCZ5/Qq/uJkRW+y5nZI33sw=|98=0|108=30|553=v06Q_1i0|554=Yzk1YTc4ZWJkZmI5MzljNzI4MGU4N2RhM2MzNmEwNGFkOTYwNDlkNTZjNGRiZTgzMjBlZDFmMWE5N2JlZDA3MA==|10=040|
20240628-06:05:21.357614000 : 8=FIX.4.4|9=78|35=2|49=DERIBITSERVER|56=Alert_Testing|34=1|52=20240628-06:05:21.230|7=1|16=4|10=102|
20240628-06:17:54.189155000 : 8=FIX.4.4|9=377|35=A|34=6|49=Alert_Testing|52=20240628-06:17:54.186|56=DERIBITSERVER|96=1719555474186.NxelOcLxkvQHIuNn2NGG2Nd/HBJ+IWAhMXefqWL+mR8X5FRy6GdaL+aib4RvCXMShzyNAVovYk+KjpuICXIzooM+n0aroPeeGO+UJOF+OG4JtcRBlZ1RcJjFB796px+eyfU915sH9h8b72KyxbaIuKnqWMtC+w0GzEOx4qTpxMY=|98=0|108=30|553=v06Q_1i0|554=MTQ3MGZkYTQ0ZDljNWRkNDg0NTc0YmExNTJlMjc2MjU3MTc5MWY4M2I1MDViMGMzNDVjNzQ4OGExNGMwNjQzYw==|10=071|
20240628-06:17:54.483872000 : 8=FIX.4.4|9=78|35=2|49=DERIBITSERVER|56=Alert_Testing|34=1|52=20240628-06:17:54.356|7=1|16=6|10=122|
20240628-06:18:15.646644000 : 8=FIX.4.4|9=377|35=A|34=8|49=Alert_Testing|52=20240628-06:18:15.644|56=DERIBITSERVER|96=1719555495644.euCg7uzj4CFlAy3P4LZx/EBGJf8byat05u6u0iRMKDtFn3DPjKQaPuK69wZWW8Q8dE7vupQEhUsj7le86ebo1nZ/kbIlDvjhORy5CAhQO8lVrUeTIiDX37mb5l3NEyQ57VSxyNbieTFNy0RM8zEAINLoi/YdeeO/ckoclg2aIY4=|98=0|108=30|553=v06Q_1i0|554=OWYyZTg0NWUxZDNlZDJmNTI1OTlkNjliNjg2YTIyZTQ1NGIzYTkyNmM1NjE2M2NkZDQyYTE1NmEyYWQwMzUzMQ==|10=163|
20240628-06:18:15.941025000 : 8=FIX.4.4|9=78|35=2|49=DERIBITSERVER|56=Alert_Testing|34=1|52=20240628-06:18:15.813|7=1|16=8|10=120|
20240628-06:37:12.284324000 : 8=FIX.4.4|9=118|35=A|34=10|49=Alert_Testing|52=20240628-06:37:12.282|56=DERIBITSERVER|98=0|108=30|553=v06Q_1i0|554=application_secret|10=252|
20240628-06:37:12.578329000 : 8=FIX.4.4|9=79|35=2|49=DERIBITSERVER|56=Alert_Testing|34=1|52=20240628-06:37:12.452|7=1|16=10|10=159|
20240628-06:37:36.182272000 : 8=FIX.4.4|9=118|35=A|34=12|49=Alert_Testing|52=20240628-06:37:36.180|56=DERIBITSERVER|98=0|108=30|553=v06Q_1i0|554=application_secret|10=001|
20240628-06:37:36.476182000 : 8=FIX.4.4|9=79|35=2|49=DERIBITSERVER|56=Alert_Testing|34=1|52=20240628-06:37:36.350|7=1|16=12|10=164|
20240628-06:38:51.521971000 : 8=FIX.4.4|9=333|35=A|34=14|49=Alert_Testing|52=20240628-06:38:51.519|56=DERIBITSERVER|96=1719556731519.p22mUEL7jEus41YLoOQoouP4IVHUdirpE82K5q/ZkMWjwO4tYaw+3OTWjeVVCkudsB+mbNJ0KZjRpDDN04odKubmSkmsZYBu+LSxurkAIDx2oRf1bDO6hpEAskJSIbX8MCzCKngi7V5Q5eWAbOK2CJSYYVmmuRjREDp1DQ0wm1A=|98=0|108=30|553=v06Q_1i0|554=oltBcF4AwCb1VpXBFmNUs-Po3_p2gblXBzBmqS0tAX4|10=144|
20240628-06:38:51.816145000 : 8=FIX.4.4|9=79|35=2|49=DERIBITSERVER|56=Alert_Testing|34=1|52=20240628-06:38:51.690|7=1|16=14|10=171|
20240628-06:39:44.669578000 : 8=FIX.4.4|9=333|35=A|34=16|49=Alert_Testing|52=20240628-06:39:44.667|56=DERIBITSERVER|96=1719556784668.zDVStiJGu4iptK5vkZqIemDrDOUtEDpEMuzI2zYxol3qhl7yFnX+ITQIhvUAtBDXuvq5+CsxKMf86BTCw3tYh5qI1HzoCb5cLHmtEZvs5IrOEWQD4b6lkVjr8XzEJHkOjwE2s8QsGk4KEVVYdQtncHsDleyEBbynTn00mH5hLok=|98=0|108=30|553=v06Q_1i0|554=oltBcF4AwCb1VpXBFmNUs-Po3_p2gblXBzBmqS0tAX4|10=220|
20240628-06:39:44.963470000 : 8=FIX.4.4|9=79|35=2|49=DERIBITSERVER|56=Alert_Testing|34=1|52=20240628-06:39:44.836|7=1|16=16|10=178|
20240628-06:40:56.675554000 : 8=FIX.4.4|9=378|35=A|34=18|49=Alert_Testing|52=20240628-06:40:56.673|56=DERIBITSERVER|96=1719556856673.Er0kXsyYcg7BjgKwiNxzMocOwpdWoj99nDYQJayaitsV7ZsU/vRYKxFOzDkAwSYD8Z+1ss03TYGoTPpLuWSpKUtopM98HcvSD9BCwMHeBSRZ4JV5pjd3g9v9ZHmfPZlDXQpVATrKvIZdHJ14I8BB5/3O9etIhnyYMb2Z6m1rAPE=|98=0|108=30|553=v06Q_1i0|554=MGE1ODAxMmJjMjg1NmUwNzE3NTE5YTY4M2ZkYTA1NTJlOGM1MzA2NDZjYWU4YTNlMDkzMTJmNjk4NTkzYjk1ZA==|10=075|
20240628-06:40:56.969624000 : 8=FIX.4.4|9=79|35=2|49=DERIBITSERVER|56=Alert_Testing|34=1|52=20240628-06:40:56.844|7=1|16=18|10=174|
20240628-07:21:28.936930000 : 8=FIX.4.4|9=82|35=A|34=20|49=Alert_Testing|52=20240628-07:21:28.933|56=DERIBITSERVER|98=0|108=30|10=075|
20240628-07:21:29.230944000 : 8=FIX.4.4|9=79|35=2|49=DERIBITSERVER|56=Alert_Testing|34=1|52=20240628-07:21:29.112|7=1|16=20|10=155|
20240628-08:09:53.952213000 : 8=FIX.4.4|9=378|35=A|34=22|49=Alert_Testing|52=20240628-08:09:53.949|56=DERIBITSERVER|96=1719562193949.DfWrlLvHkjEE3MQ5BVuHtV4XCZeV+Fl3sGGuGx058BlIcGSaVSyZGja+Bm9o3Fcq0iDWGtg9Lr//XlhOKKgvpb/qxaFMnFRsBkhLhSS7qzQv/EWmj8neGp6i/wnGCR2QqY1UZAYbOlwFWrpD2HSemzH1ZvKza62LNw82UYpAGGE=|98=0|108=30|553=v06Q_1i0|554=ZGIwMGM3ZmU1MTA0MGJjYzk4YTM0NzU0MDA1ZjNhOWMzOTkxOWQ5NTM1M2YyMzg4ZmM4ZTIwZTdkNDA3NWMwNA==|10=098|
20240628-08:09:54.247744000 : 8=FIX.4.4|9=79|35=2|49=DERIBITSERVER|56=Alert_Testing|34=1|52=20240628-08:09:54.124|7=1|16=22|10=165|
20240702-00:23:22.087691000 : 8=FIX.4.4|9=377|35=A|34=1|49=Alert_Testing|52=20240702-00:23:22.086|56=DERIBITSERVER|96=1719879802086.dWSizkUou7drmfrRPCFKeJSBoW798A69GLjDtBOmj1GGn8PYj7Rsr0ak1Majze55gXMoweWHmI3tk6ouJomLKxef79hd9rl40Xn3oH/D9TLMo7tuxjY6hDbOl4nPDtPf3M78jdOTwB4QxTZbNKov7U9GW1PJF5lfIDT/Ew0Q3HI=|98=0|108=30|553=v06Q_1i0|554=Y2ZlM2E3YTBiOGFmY2E4YWE3MTZkNmYxYTE0ZGUxM2FlNzYyMTkxZTJmMTZjMjQ0M2ExMTQwYThiN2FiOGM3ZQ==|10=011|
20240702-00:23:22.382373000 : 8=FIX.4.4|9=92|35=5|49=DERIBITSERVER|56=Alert_Testing|34=1|52=20240702-00:23:22.423|58=invalid_credentials|10=093|
20240702-00:23:22.385536000 : 8=FIX.4.4|9=69|35=5|34=2|49=Alert_Testing|52=20240702-00:23:22.382|56=DERIBITSERVER|10=231|
20240702-00:23:47.465372000 : 8=FIX.4.4|9=377|35=A|34=4|49=Alert_Testing|52=20240702-00:23:47.463|56=DERIBITSERVER|96=1719879827463.MMS9B2eXorrQrz1Bq9z0p/+4D3Qc5a/xZkDlXijVUEOfC0XW6XV97L4ok4LWdo28FPZ+ITAK4v+1iEhz96JE2Z5oWaghrH/jpRfUePfyzGU2lZRROtmIwHE1yYkTWmYKXrS/f28wPdtWucZtF1UT4RznvWn+tBBn8qLvrCLgkrs=|98=0|108=30|553=v06Q_1i0|554=ODQ2MWUzZTFjNDZlYzUzMzczZGZhZDczNzEyN2M1MWMyODg2ODZiOTA4ZGMxODhiNzVjNDRkMWYyNzFhMjZhOQ==|10=237|
20240702-00:23:47.759408000 : 8=FIX.4.4|9=78|35=2|49=DERIBITSERVER|56=Alert_Testing|34=1|52=20240702-00:23:47.800|7=1|16=4|10=100|
20240702-00:24:17.460839000 : 8=FIX.4.4|9=377|35=A|34=6|49=Alert_Testing|52=20240702-00:24:17.459|56=DERIBITSERVER|96=1719879857459.DUBBg/BV3Ucz9Tumo3Vm/z5bYUn2qRYCGKD50jVJB1IhpaAHOY/V2se80oL//SIerBV5r6tCA2oTx9BPtkrcwVPGe9cLDJxOl+cFWYGGdp2xvr0zKUdRfqi8/oOjoP79ugDYVXx9sp/DpYcQ/ulvlfQRI/YV5jWvltTUJfQEuM0=|98=0|108=30|553=v06Q_1i0|554=Y2Y1YzVjNzI5NjEyYWNjNTdkZjZjNmFlNmQ4Nzg3Nzc0YmRjYmM4NTZhZDZhY2NhYjNiMDdmNTYwYWM3MTU5Yw==|10=187|
20240702-00:24:17.754873000 : 8=FIX.4.4|9=78|35=2|49=DERIBITSERVER|56=Alert_Testing|34=1|52=20240702-00:24:17.796|7=1|16=6|10=114|
20240702-00:24:47.496504000 : 8=FIX.4.4|9=377|35=A|34=8|49=Alert_Testing|52=20240702-00:24:47.495|56=DERIBITSERVER|96=1719879887495.NGNl2zkUkoD/7FoY78BzONIIMkL+TbhYRC0iTpmVvO0xDXXsW+15SBGybciz+VpmK2yoTG8Q50kMJgNY9u+fnI1BuVJFyIAq8VJcVgtCrp+XAWZBcO2Qo/+VUFy8cEEmgxclRUajwt1MTwykaL0jhApqHO6ePTqR0gU6s2amPfU=|98=0|108=30|553=v06Q_1i0|554=Y2ViNTIwMmI0NDk0MTQ3NGUwZWRlYjViMjRhNTc2NzY0YTVkMjgzZmRmYTJmZTdhOTc5ZTZhYmI3ZTQ1NWVmYg==|10=177|
20240702-00:24:47.790249000 : 8=FIX.4.4|9=78|35=2|49=DERIBITSERVER|56=Alert_Testing|34=1|52=20240702-00:24:47.831|7=1|16=8|10=109|
20240702-00:37:53.853451000 : 8=FIX.4.4|9=378|35=A|34=10|49=Alert_Testing|52=20240702-00:37:53.851|56=DERIBITSERVER|96=1719880673851.v7JQmpOhmiIy0BAjVYbqWXy8vUlS2JFjdu/rodQyMarj+flBhHJ05fMtUZ0RX+WgIYHTe2WYtMNzUoueOFmz3joQcEVHDD/blbf47c/JX+jVojm8GPXZrq0Lg0WXytr2VAc55IZBokqYEkAJ2EO9hcmifljaKTEua3SIpQP+ZKM=|98=0|108=30|553=v06Q_1i0|554=NmM3MDFlMGI0NjkxYjMzZjAzNmJlNTk1NjBlNDNjNjFlMzg5ZDgyNTRmYWMyZTVmNDNiNWQxYzgwMTQxMGQ1MA==|10=026|
20240702-00:37:54.147990000 : 8=FIX.4.4|9=79|35=2|49=DERIBITSERVER|56=Alert_Testing|34=1|52=20240702-00:37:54.194|7=1|16=10|10=155|
20240702-00:50:32.731992000 : 8=FIX.4.4|9=378|35=A|34=12|49=Alert_Testing|52=20240702-00:50:32.729|56=DERIBITSERVER|96=1719881432729.J0DCJe9tICIftEY61MtRD4uCX+81b3chqy/pnaKSlHsGLSOmw+VSyfdP3UwjWjMCRdKtmi9yWGjFcx1dgPvG9x/JGcdS2z7xZt63i3KC77r66JlAXGNoyU+4fFMm+zvqQbCYTp+XeW236U/Xkv314Pn7TaXXBgLT/jJcBHga4B8=|98=0|108=30|553=v06Q_1i0|554=MzcwMWRmMzc5ZGVmOThjMjU4ODJlYWYwZmVjNWRjOTEwMTI0MGZlZTIzNzFiNTRkOTQwOTY0YTQyNDRlZWQwNA==|10=198|
20240702-00:50:33.025914000 : 8=FIX.4.4|9=79|35=2|49=DERIBITSERVER|56=Alert_Testing|34=1|52=20240702-00:50:33.075|7=1|16=12|10=147|
20240703-08:30:36.747676000 : 8=FIX.4.4|9=332|35=A|34=1|49=Alert_Testing|52=20240703-08:30:36.746|56=DERIBITSERVER|96=1719995436746.zr4qHbNZ0gOPh5zx655l5tRcc7EcGUx+Mtv0+zWh3+rCbA5oEngsZzpCzeXK1xqwfl8tvk/CP2mujR2Aa66lFJGnYn2V7GhJ5APEIWuCgHht+iv8bOiJ95O0bIy45Hvw8cbsUC3rXKAtWtXUijmPuDH39mZtpNkPzqJwHVTSyjo=|98=0|108=1|553=v06Q_1i0|554=mIj1Qtf/SrsVyQ6/lFPXyg52uhlDr+mt+Sv9Xubi6NM=|10=201|
20240703-08:30:37.048902000 : 8=FIX.4.4|9=339|35=A|49=DERIBITSERVER|56=Alert_Testing|34=1|52=20240703-08:30:37.016|95=186|96=1719995436746.zr4qHbNZ0gOPh5zx655l5tRcc7EcGUx+Mtv0+zWh3+rCbA5oEngsZzpCzeXK1xqwfl8tvk/CP2mujR2Aa66lFJGnYn2V7GhJ5APEIWuCgHht+iv8bOiJ95O0bIy45Hvw8cbsUC3rXKAtWtXUijmPuDH39mZtpNkPzqJwHVTSyjo=|98=0|108=1|553=v06Q_1i0|554=mIj1Qtf/SrsVyQ6/lFPXyg52uhlDr+mt+Sv9Xubi6NM=|10=018|
20240703-08:30:38.050397000 : 8=FIX.4.4|9=69|35=0|49=DERIBITSERVER|56=Alert_Testing|34=2|52=20240703-08:30:38.018|10=236|
20240703-08:30:39.050862000 : 8=FIX.4.4|9=69|35=0|49=DERIBITSERVER|56=Alert_Testing|34=3|52=20240703-08:30:39.018|10=238|
20240703-08:31:31.348401000 : 8=FIX.4.4|9=332|35=A|34=2|49=Alert_Testing|52=20240703-08:31:31.344|56=DERIBITSERVER|96=1719995491344.viweWtoQE9+gQbHYJ9PcmPPdM0RljbVUKigF/hkJW5ncrurcR5Mwwhcmn410q811fNRr5QUzEf4juOp00o7TXD7YMUKqNDcM7egBNk4DSxaz86wOV3fc2boloSMs+1WUAI0tYDavJdR2uYpMWRaq1L572SLLNGdYBbIfDN9v5Cg=|98=0|108=1|553=v06Q_1i0|554=O52k4r2V3voMy9Rm/yEXSX6jieBAsmOZryZBaC9gOTw=|10=018|
20240703-08:31:31.647637000 : 8=FIX.4.4|9=78|35=2|49=DERIBITSERVER|56=Alert_Testing|34=1|52=20240703-08:31:31.615|7=1|16=2|10=103|
20240703-08:31:55.116473000 : 8=FIX.4.4|9=332|35=A|34=4|49=Alert_Testing|52=20240703-08:31:55.114|56=DERIBITSERVER|96=1719995515114.WAihiYTaW3NTxEQV4Pf/WDC0tlJOQ8Mdqhnq5BCP9Bi9Gm/+er7L7Em2DOuc1EOTpEOPilYvEBGJXmqJ1xNFSEN3t0muz135CmTwWC7Y5iW7Rk6GyMsUN6Y6sWusD7gt9xW8do/IBczjM/o64s3dC1QKyPUU8BKneWChWg2CqYI=|98=0|108=1|553=v06Q_1i0|554=Hmzt68w7dBJY2yu6yYZtuu2Oq7q3Cdkuur9mH7Fperk=|10=145|
20240703-08:31:55.416040000 : 8=FIX.4.4|9=78|35=2|49=DERIBITSERVER|56=Alert_Testing|34=1|52=20240703-08:31:55.383|7=1|16=4|10=113|
20240703-08:32:59.235577000 : 8=FIX.4.4|9=332|35=A|34=6|49=Alert_Testing|52=20240703-08:32:59.234|56=DERIBITSERVER|96=1719995579234.IbvKJ4rVjVsuTmls36eeFODXE7DnC3ZACwbjZoGz1kYZFQXN39HV77RuXiLpT+MrBWvrjZmeAvCrWOfc/O0xeEkLz4kQGgkjGOkWhHPiBDLpiy/LuQa4cmJDnC1AIBMaenAf4GiRM9tJStWsLnUjw8idzwZss6ub45Eq/RqP5IM=|98=0|108=1|553=v06Q_1i0|554=yLQin5iZMrE70IEabXkwJAdgaZFp21tqfuxpMtiw/Ms=|10=094|
20240703-08:32:59.534969000 : 8=FIX.4.4|9=78|35=2|49=DERIBITSERVER|56=Alert_Testing|34=1|52=20240703-08:32:59.502|7=1|16=6|10=113|
20240703-08:37:53.323323000 : 8=FIX.4.4|9=332|35=A|34=8|49=Alert_Testing|52=20240703-08:37:53.321|56=DERIBITSERVER|96=1719995873321.GHJJuvEk7z70/GGxoo7gDcZEmQmrma6zpOVGLc75rc+8BcOmm+Ced+rLPoqxLvLD7zX7cuRaH3G1GAo34MrVUIcRCpI7p/qU4HLMEjkLhaxWB6xLLXbWTspyPW6mZXiilsxpIcfAnkivCXA+QMKXSpOLvRR1PSYpiAVSZEW7pIo=|98=0|108=1|553=v06Q_1i0|554=nQH3q2xUokXHnUODUBxSt3a/DrJ5YCoRhW+VmRUTkcs=|10=081|
20240703-08:37:53.623352000 : 8=FIX.4.4|9=78|35=2|49=DERIBITSERVER|56=Alert_Testing|34=1|52=20240703-08:37:53.588|7=1|16=8|10=128|
20240703-08:38:29.373909000 : 8=FIX.4.4|9=333|35=A|34=10|49=Alert_Testing|52=20240703-08:38:29.372|56=DERIBITSERVER|96=1719995909372.PZwGQfGetnmPy0GgmNUyA2zVtZezoKhFKPVSmf5mfijbgdTv8PtfY3dU/MLJyRumP34KHWy+k423ko54OaGegQ/+g7Ye1/dwl7muKPudp3FJc//qF5xwu76cmE6eih75P6HPKieS5zYf1txZ06JZokehybdsQXoTFjuG/wfyaq8=|98=0|108=1|553=v06Q_1i0|554=ZHiTdP6/EjzQZGoxFm2V1UwJmm6G1WSVUPwoBKsuDwI=|10=059|
20240703-08:38:29.673640000 : 8=FIX.4.4|9=79|35=2|49=DERIBITSERVER|56=Alert_Testing|34=1|52=20240703-08:38:29.638|7=1|16=10|10=170|
20240703-08:41:53.075303000 : 8=FIX.4.4|9=333|35=A|34=12|49=Alert_Testing|52=20240703-08:41:53.073|56=DERIBITSERVER|96=1719996113073.yXggp0ykOetsNV99tFLuVIoGof28s+xIswaG2jVGDr7gmgov/C5iEecXVsRUAnOpufvaisTrtiS38OWrNCOdnrgVhuPzu0y+JyAczGnNFU7d/xWAl7SlthZtBpI6B28A70/U6u1+kPPaEwpA2/FleRxKtwKRNvjt5tvyGxbm7mU=|98=0|108=1|553=v06Q_1i0|554=ubLFbfuJdjgbB3kJSNNuyswqp1t5jAzU6YmYzrV6HUs=|10=061|
20240703-08:41:53.374919000 : 8=FIX.4.4|9=79|35=2|49=DERIBITSERVER|56=Alert_Testing|34=1|52=20240703-08:41:53.339|7=1|16=12|10=161|
20240703-08:42:42.335320000 : 8=FIX.4.4|9=205|35=A|34=14|49=Alert_Testing|52=20240703-08:42:42.331|56=DERIBITSERVER|96=1719996162332.tHCJE5qwJbXA0WKtglynPqoIaaN3os+3x9LU6ffyMmY=|98=0|108=1|553=v06Q_1i0|554=dnkw+mhx90Kzzx/SR+IOLGDb29pBKyZjpDWIFEZBh0E=|10=045|
20240703-08:42:42.635073000 : 8=FIX.4.4|9=79|35=2|49=DERIBITSERVER|56=Alert_Testing|34=1|52=20240703-08:42:42.598|7=1|16=14|10=169|
20240703-09:02:48.129886000 : 8=FIX.4.4|9=200|35=A|34=1|49=Alert_Testing|52=08060403-55:09:14|56=DERIBITSERVER|96=1719997368126.63aSPy+PA40kO8/jzgRuJrY8ANSwwUh4UX6lIFX5WZY=|98=0|108=1|553=v06Q_1i0|554=mYccdqPcYAfoVSVjgn+YiIwfaUjT059tfQlZxWm7weY=|10=150|
20240703-09:52:52.446970000 : 8=FIX.4.4|9=200|35=A|34=1|49=Alert_Testing|52=08060403-55:09:14|56=DERIBITSERVER|96=1720000372443.AR/LUDzfh06YlU1C5ThFP9dduixokAOduLz3kIyMI70=|98=0|108=1|553=v06Q_1i0|554=6i/CtJm/kj3yUZp71ueGBGpaMWutONpNMsMHK4lWNI4=|10=150|
20240703-09:52:52.747848000 : 8=FIX.4.4|9=210|35=A|49=DERIBITSERVER|56=Alert_Testing|34=1|52=20240703-09:52:52.700|95=58|96=1720000372443.AR/LUDzfh06YlU1C5ThFP9dduixokAOduLz3kIyMI70=|98=0|108=1|553=v06Q_1i0|554=6i/CtJm/kj3yUZp71ueGBGpaMWutONpNMsMHK4lWNI4=|10=113|
20240703-09:52:52.749102000 : 8=FIX.4.4|9=119|35=5|34=18|49=Alert_Testing|52=20240703-09:52:52.748|56=DERIBITSERVER|58=MsgSeqNum too low, expecting 4 but received 1|10=248|
20240703-09:53:21.257019000 : 8=FIX.4.4|9=200|35=A|34=1|49=Alert_Testing|52=08060403-55:09:14|56=DERIBITSERVER|96=1720000401255.lBsTZsUvn3RU7mDT7imbPsHgb+WsC/3XP1lKjrPyph4=|98=0|108=1|553=v06Q_1i0|554=CjA5Iwg5CVJ5cXxSXbuUGlWWi+srWMbcaeIvbKq5b0c=|10=145|
20240703-09:53:21.557642000 : 8=FIX.4.4|9=210|35=A|49=DERIBITSERVER|56=Alert_Testing|34=1|52=20240703-09:53:21.509|95=58|96=1720000401255.lBsTZsUvn3RU7mDT7imbPsHgb+WsC/3XP1lKjrPyph4=|98=0|108=1|553=v06Q_1i0|554=CjA5Iwg5CVJ5cXxSXbuUGlWWi+srWMbcaeIvbKq5b0c=|10=112|
20240703-09:53:21.559116000 : 8=FIX.4.4|9=119|35=5|34=21|49=Alert_Testing|52=20240703-09:53:21.557|56=DERIBITSERVER|58=MsgSeqNum too low, expecting 4 but received 1|10=237|
20240703-09:56:25.324684000 : 8=FIX.4.4|9=205|35=A|34=23|49=Alert_Testing|52=20240703-09:56:25.321|56=DERIBITSERVER|96=1720000585321.B2LdfM4ZcsjDjsdy3AOLTkU1CthTF1AvUz5rIwF/Zeo=|98=0|108=1|553=v06Q_1i0|554=IauNqL5mW05f24nSTVtSbWccG3l8qFj0wDJELrQqvlc=|10=041|
20240703-09:56:25.624502000 : 8=FIX.4.4|9=79|35=2|49=DERIBITSERVER|56=Alert_Testing|34=1|52=20240703-09:56:25.576|7=1|16=23|10=172|
20240703-09:56:55.358551000 : 8=FIX.4.4|9=205|35=A|34=25|49=Alert_Testing|52=20240703-09:56:55.357|56=DERIBITSERVER|96=1720000615357.PF5cZzD1D/nl/EsEdffodgUcQXLnl+geC2FuuogEB5M=|98=0|108=1|553=v06Q_1i0|554=e4Aqfe+oFcs3zN3eVma02k+UqUmKV5/wbYmzXfJ4LjY=|10=014|
20240703-09:56:55.658547000 : 8=FIX.4.4|9=79|35=2|49=DERIBITSERVER|56=Alert_Testing|34=1|52=20240703-09:56:55.610|7=1|16=25|10=166|
20240703-09:57:25.385591000 : 8=FIX.4.4|9=193|35=A|34=27|49=Alert_Testing|52=20240703-09:57:25.384|56=DERIBITSERVER|96=1720000645384.KT4ZbKjspr8Jt36s1eerBMeFN4Ht9fd5HE59mZqC3Ps=|98=0|108=1|553=v06Q_1i0|554=0eyCpsbRBKUcLIpvy3jGK0q33Nv5Bw==|10=137|
20240703-09:57:25.686031000 : 8=FIX.4.4|9=79|35=2|49=DERIBITSERVER|56=Alert_Testing|34=1|52=20240703-09:57:25.638|7=1|16=27|10=176|
20240703-09:57:55.416675000 : 8=FIX.4.4|9=205|35=A|34=29|49=Alert_Testing|52=20240703-09:57:55.415|56=DERIBITSERVER|96=1720000675415.JdDFrKgarvlYTrHbgJJjCo8MJK62/hZ2JP2qT4TeTzM=|98=0|108=1|553=v06Q_1i0|554=4PdBau+9WGFtPYH7af3l5IMVS4e7gSe3WloNQ0TYU1Q=|10=219|
20240703-09:57:55.716567000 : 8=FIX.4.4|9=79|35=2|49=DERIBITSERVER|56=Alert_Testing|34=1|52=20240703-09:57:55.669|7=1|16=29|10=185|
20240703-09:58:25.447203000 : 8=FIX.4.4|9=205|35=A|34=31|49=Alert_Testing|52=20240703-09:58:25.446|56=DERIBITSERVER|96=1720000705446.kbjS1MCmdmLsCv6S3bKgIp0N9NZS62hPkhrv8SIc4i0=|98=0|108=1|553=v06Q_1i0|554=wuxTdkem4mLf34SijIL1A8DyxbIPm7m2RobPpEfAHdM=|10=014|
20240703-09:58:25.747026000 : 8=FIX.4.4|9=79|35=2|49=DERIBITSERVER|56=Alert_Testing|34=1|52=20240703-09:58:25.699|7=1|16=31|10=179|
20240703-09:58:55.477987000 : 8=FIX.4.4|9=205|35=A|34=33|49=Alert_Testing|52=20240703-09:58:55.476|56=DERIBITSERVER|96=1720000735476.ecdLP0vUE06mv+uZR+D3rzR8g0M8LGh9WDRs0MsmQUo=|98=0|108=1|553=v06Q_1i0|554=U87Ghv/hwLxPE75EYz1iPioiUWiNMVySD93kcqWp95s=|10=141|
20240703-09:58:55.781211000 : 8=FIX.4.4|9=79|35=2|49=DERIBITSERVER|56=Alert_Testing|34=1|52=20240703-09:58:55.730|7=1|16=33|10=170|
20240703-09:59:25.501312000 : 8=FIX.4.4|9=205|35=A|34=35|49=Alert_Testing|52=20240703-09:59:25.500|56=DERIBITSERVER|96=1720000765500.XExYKEMOIA3rozd6f7bLSq33lwEb2j4iUunasZBQ0uQ=|98=0|108=1|553=v06Q_1i0|554=AveMExylwtFFNyyb8RFpSGpJOJw3ndnrWNMYLnaWNps=|10=071|
20240703-09:59:25.801080000 : 8=FIX.4.4|9=79|35=2|49=DERIBITSERVER|56=Alert_Testing|34=1|52=20240703-09:59:25.753|7=1|16=35|10=175|
20240703-09:59:55.544263000 : 8=FIX.4.4|9=205|35=A|34=37|49=Alert_Testing|52=20240703-09:59:55.541|56=DERIBITSERVER|96=1720000795541.JxUtDIiBsfCt6EbB3/mgWdl4zFCuGRBk/mlhx50+hZE=|98=0|108=1|553=v06Q_1i0|554=0PRx7QTu4Yg6nBUiEw3WVP1GiHTiDZCsGQJwnqpm7yU=|10=254|
20240703-09:59:55.844322000 : 8=FIX.4.4|9=79|35=2|49=DERIBITSERVER|56=Alert_Testing|34=1|52=20240703-09:59:55.796|7=1|16=37|10=187|
20240703-10:00:25.574858000 : 8=FIX.4.4|9=205|35=A|34=39|49=Alert_Testing|52=20240703-10:00:25.573|56=DERIBITSERVER|96=1720000825573.EyZa35suyrUX3xWbo1wrioxh6Y/u/LRBKHTNcMfIkrM=|98=0|108=1|553=v06Q_1i0|554=KkTbdvckQ9hHewSMhPWnIZTsLUt4itqUGd7vqnHZYMw=|10=209|
20240703-10:00:25.874582000 : 8=FIX.4.4|9=79|35=2|49=DERIBITSERVER|56=Alert_Testing|34=1|52=20240703-10:00:25.827|7=1|16=39|10=159|
20240703-10:26:36.394922000 : 8=FIX.4.4|9=207|35=A|34=1|49=Alert_Testing|52=08060403-55:09:14|56=DERIBITSERVER|96=1709791993000.dGVzdF9kZXJpYml0X3Rlc3RuZXRfaW5jcmVtZW50YWxfMDAwMDA=|98=0|108=1|553=API-KEY|554=596Z1EYCfEiEWKYkxW4BEQ+0thmtigjuYza0lgKI93A=|10=046|
20240703-10:26:36.694513000 : 8=FIX.4.4|9=92|35=5|49=DERIBITSERVER|56=Alert_Testing|34=1|52=20240703-10:26:36.646|58=invalid_credentials|10=110|
20240703-10:26:36.696144000 : 8=FIX.4.4|9=70|35=5|34=42|49=Alert_Testing|52=20240703-10:26:36.695|56=DERIBITSERVER|10=036|
20240703-10:27:06.413323000 : 8=FIX.4.4|9=207|35=A|34=1|49=Alert_Testing|52=08060403-55:09:14|56=DERIBITSERVER|96=1709791993000.dGVzdF9kZXJpYml0X3Rlc3RuZXRfaW5jcmVtZW50YWxfMDAwMDA=|98=0|108=1|553=API-KEY|554=596Z1EYCfEiEWKYkxW4BEQ+0thmtigjuYza0lgKI93A=|10=046|
20240703-10:27:06.712460000 : 8=FIX.4.4|9=92|35=5|49=DERIBITSERVER|56=Alert_Testing|34=1|52=20240703-10:27:06.664|58=invalid_credentials|10=108|
20240703-10:27:06.714185000 : 8=FIX.4.4|9=70|35=5|34=45|49=Alert_Testing|52=20240703-10:27:06.712|56=DERIBITSERVER|10=027|
20240703-12:11:23.954690000 : 8=FIX.4.4|9=205|35=A|34=47|49=Alert_Testing|52=20240703-12:11:23.952|56=DERIBITSERVER|96=1720008683952.mJGcshjtlhCjtGhNTaiiPLE58IpE5T1bfwpMFb9I50M=|98=0|108=1|553=v06Q_1i0|554=uu3vsQxkMr6rySJoo8TiWfJ6wRDpGP9kiD7FaVAGBHc=|10=139|
20240703-12:11:24.254083000 : 8=FIX.4.4|9=79|35=2|49=DERIBITSERVER|56=Alert_Testing|34=1|52=20240703-12:11:24.218|7=1|16=47|10=155|
20240703-12:11:53.981550000 : 8=FIX.4.4|9=205|35=A|34=49|49=Alert_Testing|52=20240703-12:11:53.980|56=DERIBITSERVER|96=1720008713980.Tv4LLWo+3mqATlnoxnWCMo4WLPO+7Sa+V6fhqh3Z6gk=|98=0|108=1|553=v06Q_1i0|554=V+i1EvDtKGTCepmA5RGRnq0tYLm/NF7jwgwL0b7oDEg=|10=147|
20240703-12:11:54.280817000 : 8=FIX.4.4|9=79|35=2|49=DERIBITSERVER|56=Alert_Testing|34=1|52=20240703-12:11:54.246|7=1|16=49|10=161|
20240703-12:12:35.822375000 : 8=FIX.4.4|9=249|35=A|34=51|49=Alert_Testing|52=20240703-12:12:35.820|56=DERIBITSERVER|96=1720008755820.SFELGE0tZrv9u06/ouMwA1aXXHe9JgFpivFOUKBHtr8RlCXujpYTb+dc7NchRmwPKN5iqmDGAMtZBfuFF5GDxg==|98=0|108=1|553=v06Q_1i0|554=9fBjKeP/mmGakYlKoGBKnratortC67n0l6F4s/GTVps=|10=247|
20240703-12:12:36.121488000 : 8=FIX.4.4|9=79|35=2|49=DERIBITSERVER|56=Alert_Testing|34=1|52=20240703-12:12:36.086|7=1|16=51|10=157|
20240703-12:13:07.100141000 : 8=FIX.4.4|9=249|35=A|34=53|49=Alert_Testing|52=20240703-12:13:07.098|56=DERIBITSERVER|96=1720008787098./Mi088DMreQqWz8q4YUTStDy7rQezWWCh75mFRYn5xoxzoO96mKsj6aANpf+uPuN8OlYt66QjTjldCKGVFlgCQ==|98=0|108=1|553=v06Q_1i0|554=vWI1ZYVqTEy5LLQ9dVhP9eOc6bsMb5bURbp8zBLg7SI=|10=219|
20240703-12:13:07.400932000 : 8=FIX.4.4|9=79|35=2|49=DERIBITSERVER|56=Alert_Testing|34=1|52=20240703-12:13:07.364|7=1|16=53|10=157|
20240703-12:16:00.006852000 : 8=FIX.4.4|9=249|35=A|34=55|49=Alert_Testing|52=20240703-12:16:00.003|56=DERIBITSERVER|96=1720008960003.ygaKfF+Rrw2BK+uXWhSXlUXyBSJDsaJoIK/nmL12ac0C5lklSOmChkgAIsrA7gYVV6NJ3GNrJsp08Oh4CFp5Rg==|98=0|108=1|553=v06Q_1i0|554=bMjA+Q8uZqlXwdjqXftGZ//WeUeQlbT3UTXLar06Ko4=|10=065|
20240703-12:16:00.305987000 : 8=FIX.4.4|9=79|35=2|49=DERIBITSERVER|56=Alert_Testing|34=1|52=20240703-12:16:00.272|7=1|16=55|10=153|
20240703-12:16:30.032729000 : 8=FIX.4.4|9=249|35=A|34=57|49=Alert_Testing|52=20240703-12:16:30.031|56=DERIBITSERVER|96=1720008990031.nFio6Y00pDQMdJf+vemtZAcwZo0HaS0xc+0DI/BZX1FknXlXMDxBSkltXEbIlUIJBFBvNczHQVxIq5WoIvIT5g==|98=0|108=1|553=v06Q_1i0|554=YIjSUj7nHVcBMnQ1TOO63yJESVfHUFwhwKX26i3QvBY=|10=038|
20240703-12:16:30.332420000 : 8=FIX.4.4|9=79|35=2|49=DERIBITSERVER|56=Alert_Testing|34=1|52=20240703-12:16:30.298|7=1|16=57|10=166|
