20240626-09:37:45.823740000 : 8=FIX.4.4|9=69|35=A|34=1|49=CLIENT1|52=20240626-09:37:45.821|56=SERVER1|98=0|108=30|10=010|
20240626-09:37:46.128566000 : 8=FIX.4.4|9=86|35=5|49=DERIBITSERVER|56=CLIENT1|34=1|52=20240626-09:37:45.987|58=invalid_credentials|10=066|
20240626-09:38:22.593665000 : 8=FIX.4.4|9=69|35=A|34=3|49=CLIENT1|52=20240626-09:38:22.592|56=SERVER1|98=0|108=30|10=013|
20240626-09:38:22.897944000 : 8=FIX.4.4|9=72|35=2|49=DERIBITSERVER|56=CLIENT1|34=1|52=20240626-09:38:22.757|7=1|16=3|10=048|
20240626-09:39:42.291459000 : 8=FIX.4.4|9=69|35=A|34=5|49=CLIENT1|52=20240626-09:39:42.288|56=SERVER1|98=0|108=30|10=020|
20240626-09:39:42.595853000 : 8=FIX.4.4|9=72|35=2|49=DERIBITSERVER|56=CLIENT1|34=1|52=20240626-09:39:42.455|7=1|16=5|10=048|
20240626-09:51:18.746624000 : 8=FIX.4.4|9=69|35=A|34=7|49=CLIENT1|52=20240626-09:51:18.743|56=SERVER1|98=0|108=30|10=015|
20240626-09:51:19.051115000 : 8=FIX.4.4|9=72|35=2|49=DERIBITSERVER|56=CLIENT1|34=1|52=20240626-09:51:18.913|7=1|16=7|10=046|
20240626-09:51:50.580991000 : 8=FIX.4.4|9=69|35=A|34=9|49=CLIENT1|52=20240626-09:51:50.579|56=SERVER1|98=0|108=30|10=020|
20240626-09:52:25.269592000 : 8=FIX.4.4|9=70|35=A|34=10|49=CLIENT1|52=20240626-09:52:25.268|56=SERVER1|98=0|108=30|10=050|
20240626-09:52:25.573774000 : 8=FIX.4.4|9=73|35=2|49=DERIBITSERVER|56=CLIENT1|34=1|52=20240626-09:52:25.436|7=1|16=10|10=088|
20240626-10:00:27.760127000 : 8=FIX.4.4|9=70|35=A|34=12|49=CLIENT1|52=20240626-10:00:27.758|56=SERVER1|98=0|108=30|10=043|
20240626-10:01:35.667803000 : 8=FIX.4.4|9=70|35=A|34=13|49=CLIENT1|52=20240626-10:01:35.665|56=SERVER1|98=0|108=30|10=041|
20240626-10:01:35.972107000 : 8=FIX.4.4|9=73|35=2|49=DERIBITSERVER|56=CLIENT1|34=1|52=20240626-10:01:35.837|7=1|16=13|10=083|
