8=FIX.4.4|9=254|35=A|34=1|49=TestClient|52=20240703-07:30:59.077|56=DERIBITSERVER|96=1709791993000.dGVzdF9kZXJpYml0X3Rlc3RuZXRfaW5jcmVtZW50YWxfMDAwMDA=|98=0|108=30|553=v06Q_1i0|554=YWI4YzIzZTIzZTIwMjY0ZTVmMmEyMjM1MThmOTIwMjM5NTEwZTY4OTM0YzMwMWEzZGE1MTU3ODliYjNmMDU3OA==|10=067|8=FIX.4.4|9=66|35=5|34=2|49=TestClient|52=20240703-07:30:59.383|56=DERIBITSERVER|10=191|8=FIX.4.4|9=254|35=A|34=3|49=TestClient|52=20240703-07:30:59.385|56=DERIBITSERVER|96=1709791993000.dGVzdF9kZXJpYml0X3Rlc3RuZXRfaW5jcmVtZW50YWxfMDAwMDA=|98=0|108=30|553=v06Q_1i0|554=YWI4YzIzZTIzZTIwMjY0ZTVmMmEyMjM1MThmOTIwMjM5NTEwZTY4OTM0YzMwMWEzZGE1MTU3ODliYjNmMDU3OA==|10=071|8=FIX.4.4|9=254|35=A|34=4|49=TestClient|52=20240703-07:37:13.821|56=DERIBITSERVER|96=1709791993000.dGVzdF9kZXJpYml0X3Rlc3RuZXRfaW5jcmVtZW50YWxfMDAwMDA=|98=0|108=30|553=v06Q_1i0|554=YWI4YzIzZTIzZTIwMjY0ZTVmMmEyMjM1MThmOTIwMjM5NTEwZTY4OTM0YzMwMWEzZGE1MTU3ODliYjNmMDU3OA==|10=064|8=FIX.4.4|9=254|35=A|34=5|49=TestClient|52=20240703-07:37:14.126|56=DERIBITSERVER|96=1709791993000.dGVzdF9kZXJpYml0X3Rlc3RuZXRfaW5jcmVtZW50YWxfMDAwMDA=|98=0|108=30|553=v06Q_1i0|554=YWI4YzIzZTIzZTIwMjY0ZTVmMmEyMjM1MThmOTIwMjM5NTEwZTY4OTM0YzMwMWEzZGE1MTU3ODliYjNmMDU3OA==|10=064|8=FIX.4.4|9=254|35=A|34=6|49=TestClient|52=20240703-07:38:26.974|56=DERIBITSERVER|96=1709791993000.dGVzdF9kZXJpYml0X3Rlc3RuZXRfaW5jcmVtZW50YWxfMDAwMDA=|98=0|108=30|553=v06Q_1i0|554=ZTdkZTk5ZDQ0NjAyN2M0ODg0NThhNjI0YzU2ZTAxMTEwZmI0YjYxOWFkOGEwOGVlNjMzNmI0OTYwMjg4Zjc3MA==|10=053|8=FIX.4.4|9=254|35=A|34=7|49=TestClient|52=20240703-07:38:27.279|56=DERIBITSERVER|96=1709791993000.dGVzdF9kZXJpYml0X3Rlc3RuZXRfaW5jcmVtZW50YWxfMDAwMDA=|98=0|108=30|553=v06Q_1i0|554=ZTdkZTk5ZDQ0NjAyN2M0ODg0NThhNjI0YzU2ZTAxMTEwZmI0YjYxOWFkOGEwOGVlNjMzNmI0OTYwMjg4Zjc3MA==|10=053|8=FIX.4.4|9=254|35=A|34=8|49=TestClient|52=20240703-07:48:33.028|56=DERIBITSERVER|96=1709791993000.dGVzdF9kZXJpYml0X3Rlc3RuZXRfaW5jcmVtZW50YWxfMDAwMDA=|98=0|108=30|553=v06Q_1i0|554=ZTdkZTk5ZDQ0NjAyN2M0ODg0NThhNjI0YzU2ZTAxMTEwZmI0YjYxOWFkOGEwOGVlNjMzNmI0OTYwMjg4Zjc3MA==|10=044|8=FIX.4.4|9=254|35=A|34=9|49=TestClient|52=20240703-07:48:33.332|56=DERIBITSERVER|96=1709791993000.dGVzdF9kZXJpYml0X3Rlc3RuZXRfaW5jcmVtZW50YWxfMDAwMDA=|98=0|108=30|553=v06Q_1i0|554=ZTdkZTk5ZDQ0NjAyN2M0ODg0NThhNjI0YzU2ZTAxMTEwZmI0YjYxOWFkOGEwOGVlNjMzNmI0OTYwMjg4Zjc3MA==|10=043|8=FIX.4.4|9=211|35=A|34=10|49=TestClient|52=20240703-07:56:44.357|56=DERIBITSERVER|96=1709791993000.dGVzdF9kZXJpYml0X3Rlc3RuZXRfaW5jcmVtZW50YWxfMDAwMDA=|98=0|108=30|553=v06Q_1i0|554=596Z1EYCfEiEWKYkxW4BEQ+0thmtigjuYza0lgKI93A=|10=135|8=FIX.4.4|9=211|35=A|34=11|49=TestClient|52=20240703-07:56:44.664|56=DERIBITSERVER|96=1709791993000.dGVzdF9kZXJpYml0X3Rlc3RuZXRfaW5jcmVtZW50YWxfMDAwMDA=|98=0|108=30|553=v06Q_1i0|554=596Z1EYCfEiEWKYkxW4BEQ+0thmtigjuYza0lgKI93A=|10=137|8=FIX.4.4|9=211|35=A|34=12|49=TestClient|52=20240703-07:59:40.866|56=DERIBITSERVER|96=1709791993000.dGVzdF9kZXJpYml0X3Rlc3RuZXRfaW5jcmVtZW50YWxfMDAwMDA=|98=0|108=30|553=v06Q_1i0|554=596Z1EYCfEiEWKYkxW4BEQ+0thmtigjuYza0lgKI93A=|10=141|8=FIX.4.4|9=211|35=A|34=13|49=TestClient|52=20240703-07:59:41.171|56=DERIBITSERVER|96=1709791993000.dGVzdF9kZXJpYml0X3Rlc3RuZXRfaW5jcmVtZW50YWxfMDAwMDA=|98=0|108=30|553=v06Q_1i0|554=596Z1EYCfEiEWKYkxW4BEQ+0thmtigjuYza0lgKI93A=|10=132|8=FIX.4.4|9=211|35=A|34=14|49=TestClient|52=20240703-08:01:26.094|56=DERIBITSERVER|96=1709791993000.dGVzdF9kZXJpYml0X3Rlc3RuZXRfaW5jcmVtZW50YWxfMDAwMDA=|98=0|108=30|553=v06Q_1i0|554=596Z1EYCfEiEWKYkxW4BEQ+0thmtigjuYza0lgKI93A=|10=128|8=FIX.4.4|9=211|35=A|34=15|49=TestClient|52=20240703-08:01:26.399|56=DERIBITSERVER|96=1709791993000.dGVzdF9kZXJpYml0X3Rlc3RuZXRfaW5jcmVtZW50YWxfMDAwMDA=|98=0|108=30|553=v06Q_1i0|554=596Z1EYCfEiEWKYkxW4BEQ+0thmtigjuYza0lgKI93A=|10=137|8=FIX.4.4|9=212|35=A|34=16|49=TestClient|52=20240703-08:10:28.595|56=DERIBITSERVER|96=1709791993000.dGVzdF9kZXJpYml0X3Rlc3RuZXRfaW5jcmVtZW50YWxfMDAwMDA=|98=0|108=30|553=client_id|554=596Z1EYCfEiEWKYkxW4BEQ+0thmtigjuYza0lgKI93A=|10=224|8=FIX.4.4|9=212|35=A|34=17|49=TestClient|52=20240703-08:10:28.900|56=DERIBITSERVER|96=1709791993000.dGVzdF9kZXJpYml0X3Rlc3RuZXRfaW5jcmVtZW50YWxfMDAwMDA=|98=0|108=30|553=client_id|554=596Z1EYCfEiEWKYkxW4BEQ+0thmtigjuYza0lgKI93A=|10=215|8=FIX.4.4|9=211|35=A|34=18|49=TestClient|52=20240703-08:19:14.223|56=DERIBITSERVER|96=1709791993000.dGVzdF9kZXJpYml0X3Rlc3RuZXRfaW5jcmVtZW50YWxfMDAwMDA=|98=0|108=1|553=client_id|554=596Z1EYCfEiEWKYkxW4BEQ+0thmtigjuYza0lgKI93A=|10=167|8=FIX.4.4|9=211|35=A|34=19|49=TestClient|52=20240703-08:19:14.528|56=DERIBITSERVER|96=1709791993000.dGVzdF9kZXJpYml0X3Rlc3RuZXRfaW5jcmVtZW50YWxfMDAwMDA=|98=0|108=1|553=client_id|554=596Z1EYCfEiEWKYkxW4BEQ+0thmtigjuYza0lgKI93A=|10=176|8=FIX.4.4|9=209|35=A|34=20|49=TestClient|52=20240703-08:22:00.203|56=DERIBITSERVER|96=1709791993000.dGVzdF9kZXJpYml0X3Rlc3RuZXRfaW5jcmVtZW50YWxfMDAwMDA=|98=0|108=1|553=API-KEY|554=596Z1EYCfEiEWKYkxW4BEQ+0thmtigjuYza0lgKI93A=|10=223|8=FIX.4.4|9=209|35=A|34=21|49=TestClient|52=20240703-08:22:00.510|56=DERIBITSERVER|96=1709791993000.dGVzdF9kZXJpYml0X3Rlc3RuZXRfaW5jcmVtZW50YWxfMDAwMDA=|98=0|108=1|553=API-KEY|554=596Z1EYCfEiEWKYkxW4BEQ+0thmtigjuYza0lgKI93A=|10=225|8=FIX.4.4|9=209|35=A|34=22|49=TestClient|52=20240703-08:23:54.269|56=DERIBITSERVER|96=1709791993000.dGVzdF9kZXJpYml0X3Rlc3RuZXRfaW5jcmVtZW50YWxfMDAwMDA=|98=0|108=1|553=API-KEY|554=596Z1EYCfEiEWKYkxW4BEQ+0thmtigjuYza0lgKI93A=|10=247|8=FIX.4.4|9=209|35=A|34=23|49=TestClient|52=20240703-08:23:54.576|56=DERIBITSERVER|96=1709791993000.dGVzdF9kZXJpYml0X3Rlc3RuZXRfaW5jcmVtZW50YWxfMDAwMDA=|98=0|108=1|553=API-KEY|554=596Z1EYCfEiEWKYkxW4BEQ+0thmtigjuYza0lgKI93A=|10=249|8=FIX.4.4|9=209|35=A|34=24|49=TestClient|52=20240703-08:26:33.332|56=DERIBITSERVER|96=1709791993000.dGVzdF9kZXJpYml0X3Rlc3RuZXRfaW5jcmVtZW50YWxfMDAwMDA=|98=0|108=1|553=API-KEY|554=596Z1EYCfEiEWKYkxW4BEQ+0thmtigjuYza0lgKI93A=|10=240|8=FIX.4.4|9=209|35=A|34=25|49=TestClient|52=20240703-08:26:33.637|56=DERIBITSERVER|96=1709791993000.dGVzdF9kZXJpYml0X3Rlc3RuZXRfaW5jcmVtZW50YWxfMDAwMDA=|98=0|108=1|553=API-KEY|554=596Z1EYCfEiEWKYkxW4BEQ+0thmtigjuYza0lgKI93A=|10=249|8=FIX.4.4|9=204|35=A|34=1|49=TestClient|52=08060403-55:09:14|56=DERIBITSERVER|96=1709791993000.dGVzdF9kZXJpYml0X3Rlc3RuZXRfaW5jcmVtZW50YWxfMDAwMDA=|98=0|108=1|553=API-KEY|554=596Z1EYCfEiEWKYkxW4BEQ+0thmtigjuYza0lgKI93A=|10=245|8=FIX.4.4|9=67|35=5|34=27|49=TestClient|52=20240703-10:28:11.934|56=DERIBITSERVER|10=238|8=FIX.4.4|9=204|35=A|34=1|49=TestClient|52=08060403-55:09:14|56=DERIBITSERVER|96=1709791993000.dGVzdF9kZXJpYml0X3Rlc3RuZXRfaW5jcmVtZW50YWxfMDAwMDA=|98=0|108=1|553=API-KEY|554=596Z1EYCfEiEWKYkxW4BEQ+0thmtigjuYza0lgKI93A=|10=245|8=FIX.4.4|9=204|35=A|34=1|49=TestClient|52=08060403-55:09:14|56=DERIBITSERVER|96=1709791993000.dGVzdF9kZXJpYml0X3Rlc3RuZXRfaW5jcmVtZW50YWxfMDAwMDA=|98=0|108=1|553=API-KEY|554=596Z1EYCfEiEWKYkxW4BEQ+0thmtigjuYza0lgKI93A=|10=245|8=FIX.4.4|9=67|35=5|34=30|49=TestClient|52=20240703-10:28:41.938|56=DERIBITSERVER|10=239|8=FIX.4.4|9=204|35=A|34=1|49=TestClient|52=08060403-55:09:14|56=DERIBITSERVER|96=1709791993000.dGVzdF9kZXJpYml0X3Rlc3RuZXRfaW5jcmVtZW50YWxfMDAwMDA=|98=0|108=1|553=API-KEY|554=596Z1EYCfEiEWKYkxW4BEQ+0thmtigjuYza0lgKI93A=|10=245|8=FIX.4.4|9=204|35=A|34=1|49=TestClient|52=08060403-55:09:14|56=DERIBITSERVER|96=1709791993000.dGVzdF9kZXJpYml0X3Rlc3RuZXRfaW5jcmVtZW50YWxfMDAwMDA=|98=0|108=1|553=API-KEY|554=596Z1EYCfEiEWKYkxW4BEQ+0thmtigjuYza0lgKI93A=|10=245|8=FIX.4.4|9=67|35=5|34=33|49=TestClient|52=20240703-10:29:11.977|56=DERIBITSERVER|10=243|8=FIX.4.4|9=204|35=A|34=1|49=TestClient|52=08060403-55:09:14|56=DERIBITSERVER|96=1709791993000.dGVzdF9kZXJpYml0X3Rlc3RuZXRfaW5jcmVtZW50YWxfMDAwMDA=|98=0|108=1|553=API-KEY|554=596Z1EYCfEiEWKYkxW4BEQ+0thmtigjuYza0lgKI93A=|10=245|8=FIX.4.4|9=204|35=A|34=1|49=TestClient|52=20200123-55:09:14|56=DERIBITSERVER|96=1709791993000.dGVzdF9kZXJpYml0X3Rlc3RuZXRfaW5jcmVtZW50YWxfMDAwMDA=|98=0|108=1|553=API-KEY|554=596Z1EYCfEiEWKYkxW4BEQ+0thmtigjuYza0lgKI93A=|10=234|8=FIX.4.4|9=67|35=5|34=36|49=TestClient|52=20240703-10:36:37.954|56=DERIBITSERVER|10=247|8=FIX.4.4|9=204|35=A|34=1|49=TestClient|52=20200123-55:09:14|56=DERIBITSERVER|96=1709791993000.dGVzdF9kZXJpYml0X3Rlc3RuZXRfaW5jcmVtZW50YWxfMDAwMDA=|98=0|108=1|553=API-KEY|554=596Z1EYCfEiEWKYkxW4BEQ+0thmtigjuYza0lgKI93A=|10=234|8=FIX.4.4|9=204|35=A|34=1|49=TestClient|52=08060403-55:09:14|56=DERIBITSERVER|96=1709791993000.dGVzdF9kZXJpYml0X3Rlc3RuZXRfaW5jcmVtZW50YWxfMDAwMDA=|98=0|108=1|553=API-KEY|554=596Z1EYCfEiEWKYkxW4BEQ+0thmtigjuYza0lgKI93A=|10=245|8=FIX.4.4|9=67|35=5|34=39|49=TestClient|52=20240703-10:39:17.810|56=DERIBITSERVER|10=242|8=FIX.4.4|9=204|35=A|34=1|49=TestClient|52=08060403-55:09:14|56=DERIBITSERVER|96=1709791993000.dGVzdF9kZXJpYml0X3Rlc3RuZXRfaW5jcmVtZW50YWxfMDAwMDA=|98=0|108=1|553=API-KEY|554=596Z1EYCfEiEWKYkxW4BEQ+0thmtigjuYza0lgKI93A=|10=245|8=FIX.4.4|9=204|35=A|34=1|49=TestClient|52=01680402-55:09:14|56=DERIBITSERVER|96=1709791993000.dGVzdF9kZXJpYml0X3Rlc3RuZXRfaW5jcmVtZW50YWxfMDAwMDA=|98=0|108=1|553=API-KEY|554=596Z1EYCfEiEWKYkxW4BEQ+0thmtigjuYza0lgKI93A=|10=245|8=FIX.4.4|9=67|35=5|34=42|49=TestClient|52=20240703-10:41:13.253|56=DERIBITSERVER|10=226|8=FIX.4.4|9=204|35=A|34=1|49=TestClient|52=01680402-55:09:14|56=DERIBITSERVER|96=1709791993000.dGVzdF9kZXJpYml0X3Rlc3RuZXRfaW5jcmVtZW50YWxfMDAwMDA=|98=0|108=1|553=API-KEY|554=596Z1EYCfEiEWKYkxW4BEQ+0thmtigjuYza0lgKI93A=|10=245|8=FIX.4.4|9=204|35=A|34=1|49=TestClient|52=01680402-55:09:14|56=DERIBITSERVER|96=1709791993000.dGVzdF9kZXJpYml0X3Rlc3RuZXRfaW5jcmVtZW50YWxfMDAwMDA=|98=0|108=1|553=API-KEY|554=596Z1EYCfEiEWKYkxW4BEQ+0thmtigjuYza0lgKI93A=|10=245|8=FIX.4.4|9=67|35=5|34=45|49=TestClient|52=20240703-10:41:32.638|56=DERIBITSERVER|10=237|8=FIX.4.4|9=204|35=A|34=1|49=TestClient|52=01680402-55:09:14|56=DERIBITSERVER|96=1709791993000.dGVzdF9kZXJpYml0X3Rlc3RuZXRfaW5jcmVtZW50YWxfMDAwMDA=|98=0|108=1|553=API-KEY|554=596Z1EYCfEiEWKYkxW4BEQ+0thmtigjuYza0lgKI93A=|10=245|8=FIX.4.4|9=204|35=A|34=1|49=TestClient|52=01680402-55:09:14|56=DERIBITSERVER|96=1709791993000.dGVzdF9kZXJpYml0X3Rlc3RuZXRfaW5jcmVtZW50YWxfMDAwMDA=|98=0|108=1|553=API-KEY|554=596Z1EYCfEiEWKYkxW4BEQ+0thmtigjuYza0lgKI93A=|10=245|8=FIX.4.4|9=67|35=5|34=48|49=TestClient|52=20240703-10:46:14.852|56=DERIBITSERVER|10=243|8=FIX.4.4|9=204|35=A|34=1|49=TestClient|52=01680402-55:09:14|56=DERIBITSERVER|96=1709791993000.dGVzdF9kZXJpYml0X3Rlc3RuZXRfaW5jcmVtZW50YWxfMDAwMDA=|98=0|108=1|553=API-KEY|554=596Z1EYCfEiEWKYkxW4BEQ+0thmtigjuYza0lgKI93A=|10=245|8=FIX.4.4|9=204|35=A|34=1|49=TestClient|52=08060403-55:09:14|56=DERIBITSERVER|96=1709791993000.dGVzdF9kZXJpYml0X3Rlc3RuZXRfaW5jcmVtZW50YWxfMDAwMDA=|98=0|108=1|553=API-KEY|554=596Z1EYCfEiEWKYkxW4BEQ+0thmtigjuYza0lgKI93A=|10=245|8=FIX.4.4|9=67|35=5|34=51|49=TestClient|52=20240703-10:46:25.981|56=DERIBITSERVER|10=242|8=FIX.4.4|9=204|35=A|34=1|49=TestClient|52=08060403-55:09:14|56=DERIBITSERVER|96=1709791993000.dGVzdF9kZXJpYml0X3Rlc3RuZXRfaW5jcmVtZW50YWxfMDAwMDA=|98=0|108=1|553=API-KEY|554=596Z1EYCfEiEWKYkxW4BEQ+0thmtigjuYza0lgKI93A=|10=245|8=FIX.4.4|9=204|35=A|34=1|49=TestClient|52=20200123-14:09:55|56=DERIBITSERVER|96=1709791993000.dGVzdF9kZXJpYml0X3Rlc3RuZXRfaW5jcmVtZW50YWxfMDAwMDA=|98=0|108=1|553=API-KEY|554=596Z1EYCfEiEWKYkxW4BEQ+0thmtigjuYza0lgKI93A=|10=234|8=FIX.4.4|9=67|35=5|34=54|49=TestClient|52=20240703-10:51:28.740|56=DERIBITSERVER|10=237|8=FIX.4.4|9=204|35=A|34=1|49=TestClient|52=20200123-14:09:55|56=DERIBITSERVER|96=1709791993000.dGVzdF9kZXJpYml0X3Rlc3RuZXRfaW5jcmVtZW50YWxfMDAwMDA=|98=0|108=1|553=API-KEY|554=596Z1EYCfEiEWKYkxW4BEQ+0thmtigjuYza0lgKI93A=|10=234|8=FIX.4.4|9=204|35=A|34=1|49=TestClient|52=20200123-14:09:55|56=DERIBITSERVER|96=1709791993000.dGVzdF9kZXJpYml0X3Rlc3RuZXRfaW5jcmVtZW50YWxfMDAwMDA=|98=0|108=1|553=API-KEY|554=596Z1EYCfEiEWKYkxW4BEQ+0thmtigjuYza0lgKI93A=|10=234|8=FIX.4.4|9=67|35=5|34=57|49=TestClient|52=20240703-10:57:05.323|56=DERIBITSERVER|10=238|8=FIX.4.4|9=204|35=A|34=1|49=TestClient|52=20200123-14:09:55|56=DERIBITSERVER|96=1709791993000.dGVzdF9kZXJpYml0X3Rlc3RuZXRfaW5jcmVtZW50YWxfMDAwMDA=|98=0|108=1|553=API-KEY|554=596Z1EYCfEiEWKYkxW4BEQ+0thmtigjuYza0lgKI93A=|10=234|8=FIX.4.4|9=208|35=A|34=1|49=TestClient|52=20200123-14:09:55.638|56=DERIBITSERVER|96=1709791993000.dGVzdF9kZXJpYml0X3Rlc3RuZXRfaW5jcmVtZW50YWxfMDAwMDA=|98=0|108=1|553=API-KEY|554=596Z1EYCfEiEWKYkxW4BEQ+0thmtigjuYza0lgKI93A=|10=189|8=FIX.4.4|9=67|35=5|34=60|49=TestClient|52=20240703-11:19:06.469|56=DERIBITSERVER|10=243|8=FIX.4.4|9=208|35=A|34=1|49=TestClient|52=20200123-14:09:55.638|56=DERIBITSERVER|96=1709791993000.dGVzdF9kZXJpYml0X3Rlc3RuZXRfaW5jcmVtZW50YWxfMDAwMDA=|98=0|108=1|553=API-KEY|554=596Z1EYCfEiEWKYkxW4BEQ+0thmtigjuYza0lgKI93A=|10=189|