8=FIX.4.4|9=69|35=A|34=1|49=CLIENT1|52=20240626-09:37:45.821|56=SERVER1|98=0|108=30|10=010|8=FIX.4.4|9=69|35=A|34=2|49=CLIENT1|52=20240626-09:37:46.129|56=SERVER1|98=0|108=30|10=013|8=FIX.4.4|9=69|35=A|34=3|49=CLIENT1|52=20240626-09:38:22.592|56=SERVER1|98=0|108=30|10=013|8=FIX.4.4|9=69|35=A|34=4|49=CLIENT1|52=20240626-09:38:22.900|56=SERVER1|98=0|108=30|10=007|8=FIX.4.4|9=69|35=A|34=5|49=CLIENT1|52=20240626-09:39:42.288|56=SERVER1|98=0|108=30|10=020|8=FIX.4.4|9=69|35=A|34=6|49=CLIENT1|52=20240626-09:39:42.596|56=SERVER1|98=0|108=30|10=023|8=FIX.4.4|9=69|35=A|34=7|49=CLIENT1|52=20240626-09:51:18.743|56=SERVER1|98=0|108=30|10=015|8=FIX.4.4|9=69|35=A|34=8|49=CLIENT1|52=20240626-09:51:19.051|56=SERVER1|98=0|108=30|10=009|8=FIX.4.4|9=69|35=A|34=9|49=CLIENT1|52=20240626-09:51:50.579|56=SERVER1|98=0|108=30|10=020|8=FIX.4.4|9=70|35=A|34=10|49=CLIENT1|52=20240626-09:52:25.268|56=SERVER1|98=0|108=30|10=050|8=FIX.4.4|9=70|35=A|34=11|49=CLIENT1|52=20240626-09:52:25.574|56=SERVER1|98=0|108=30|10=051|8=FIX.4.4|9=70|35=A|34=12|49=CLIENT1|52=20240626-10:00:27.758|56=SERVER1|98=0|108=30|10=043|8=FIX.4.4|9=70|35=A|34=13|49=CLIENT1|52=20240626-10:01:35.665|56=SERVER1|98=0|108=30|10=041|8=FIX.4.4|9=70|35=A|34=14|49=CLIENT1|52=20240626-10:01:35.972|56=SERVER1|98=0|108=30|10=043|