8=FIX.4.4|9=267|35=A|34=1|49=CLIENT1|52=20240628-03:45:04.998|56=DERIBITSERVER|96=1719546304998.YWxiZXJ0X3Rlc3Rfbm9uY2VfMTIzNDU2Nzg5MTAxMTEyMTMxNDE1MTYxNzE4MTkyMA==|98=0|108=30|553=v06Q_1i0|554=ODE3NjdhMzBmYzJlODdmODZiMzA2YWNiMWUwZTQxMzBmNTVhNThmZmU2MTVjODU4NmY0ZTlkZDFiOWViMjM4Mg==|10=212|8=FIX.4.4|9=63|35=5|34=2|49=CLIENT1|52=20240628-03:45:05.295|56=DERIBITSERVER|10=174|8=FIX.4.4|9=267|35=A|34=3|49=CLIENT1|52=20240628-03:45:05.297|56=DERIBITSERVER|96=1719546305297.YWxiZXJ0X3Rlc3Rfbm9uY2VfMTIzNDU2Nzg5MTAxMTEyMTMxNDE1MTYxNzE4MTkyMA==|98=0|108=30|553=v06Q_1i0|554=Njg3NTNkNWM1ODE1ZWZhMGUxMGY4NTdkMTJiZDYwYWEwNTNmMTNhMDA2YjA0N2JkZmJhYzBkZmQ2ZGM0N2I3Zg==|10=037|8=FIX.4.4|9=267|35=A|34=4|49=CLIENT1|52=20240628-03:45:34.936|56=DERIBITSERVER|96=1719546334936.YWxiZXJ0X3Rlc3Rfbm9uY2VfMTIzNDU2Nzg5MTAxMTEyMTMxNDE1MTYxNzE4MTkyMA==|98=0|108=30|553=v06Q_1i0|554=OWEzZjg4NGZkNTk4YTdlOGY3ODBkM2E0Zjk1ZWUyNTkxYzczNGRhZDRkMmVlYzY2OTAxZDk5ZmYzYWViM2RlOQ==|10=200|8=FIX.4.4|9=267|35=A|34=5|49=CLIENT1|52=20240628-03:45:35.231|56=DERIBITSERVER|96=1719546335231.YWxiZXJ0X3Rlc3Rfbm9uY2VfMTIzNDU2Nzg5MTAxMTEyMTMxNDE1MTYxNzE4MTkyMA==|98=0|108=30|553=v06Q_1i0|554=NDQwY2E2NGQzNjQwODY1NmNmODViZTUzNTYyNjUxNmEyMjQ4NGQ5ZGI3NThlMGE5OGI4OGE2NDFjNmNhY2YzNw==|10=103|8=FIX.4.4|9=267|35=A|34=6|49=CLIENT1|52=20240628-03:48:27.846|56=DERIBITSERVER|96=1719546507846.YWxiZXJ0X3Rlc3Rfbm9uY2VfMTIzNDU2Nzg5MTAxMTEyMTMxNDE1MTYxNzE4MTkyMA==|98=0|108=30|553=v06Q_1i0|554=NGMxYWYyNWUxZjc5NDcyMGY1ZjcyZWMwNjMxNDk5Nzg4YjQ5ZDkzOTUzMGIzYWIzYjYxYmE4N2E1MjI0MDQzZA==|10=220|8=FIX.4.4|9=267|35=A|34=7|49=CLIENT1|52=20240628-03:48:28.145|56=DERIBITSERVER|96=1719546508145.YWxiZXJ0X3Rlc3Rfbm9uY2VfMTIzNDU2Nzg5MTAxMTEyMTMxNDE1MTYxNzE4MTkyMA==|98=0|108=30|553=v06Q_1i0|554=YTk4ZjY1NjRjMWI4MDQ2ZjU1MjQ4MjkyNjE4NTRiMzI3N2Y1Mjg1ZWRkNDVmODBhZmNiNTU3NTc2YWI3ZWE2Ng==|10=240|8=FIX.4.4|9=243|35=A|34=8|49=CLIENT1|52=20240628-04:02:50.449|56=DERIBITSERVER|96=1719547370449.BLTy3qzaa9dJ80sz10jtFvVtnnU6EwnMWTAqcMH6ces=|98=0|108=30|553=v06Q_1i0|554=Y2EyOWU5MzEwOTc1NzVmOTc0OTI4YzRiYTM5MGJjZjI0MTM4ZWRhM2U3NzAzZmIzZGQzYzg3ODc1YmZiNTU3Zg==|10=155|8=FIX.4.4|9=243|35=A|34=9|49=CLIENT1|52=20240628-04:02:50.747|56=DERIBITSERVER|96=1719547370747.gFJvcOQRLo56h53gAIae/VNNf6rTHSidNtVQP92RKBY=|98=0|108=30|553=v06Q_1i0|554=NDFkYzk4M2NhN2EzMmVlYTlhMzAyNzg5NmE4NGRhZjQ5NzM1ZjNlOGJlZmI4NmI4OTI4MzIyMDZjZGM5NGJiZA==|10=113|8=FIX.4.4|9=372|35=A|34=10|49=CLIENT1|52=20240628-05:45:38.772|56=DERIBITSERVER|96=1719553538772.eCHbs5ioMDuWVirJCaiY+C/NKCdsOj/svHgBnfkgt6EVlid0GW0JEFLLFX/+ZCaZao/TEBAPGwZ05Ui7c6+vQ8ZEU3I9Qo8ha/u6esVBb7lDd4MYC+EDdNhSQBlfCqFhqSvyMXWI1GFqMzDNQFVcNiR6J2bCHzU0y/i+MzE1QzA=|98=0|108=30|553=v06Q_1i0|554=MmFiYzczMzcyZTAzMDM4YzcxM2QzYmExM2Y1YjA3NDgzZWFmYzBhYWNmYmMyNzViYTdlMWY1YWI4MzkwMjZkZg==|10=016|8=FIX.4.4|9=372|35=A|34=11|49=CLIENT1|52=20240628-05:45:39.070|56=DERIBITSERVER|96=1719553539070.Jb5RKFjkQouP8QQbaQumSKGPme6zY0ctBI+4uWJ1Cn9ch7DoAtoJsDRM9BE52qDBgUtGpfG8tbicW0QkFhL4KvrZyUXj4Uycm7tqgZJggoZw/mP/Hm32IWeAq1KCVo6GovqaEDESGL5nWKc6CpCK+kKZmgE7uqEL9MPZe3EMc1A=|98=0|108=30|553=v06Q_1i0|554=OWY2MWU1ZDcxMTFmOTY5ODI5OGYzMzZlZGUwMzFkYTRkYTA4Y2Y5M2YxNTM5ZWQ2MmQ3OGE3YWFmMWNlOTFiYw==|10=159|8=FIX.4.4|9=372|35=A|34=12|49=CLIENT1|52=20240628-05:46:18.211|56=DERIBITSERVER|96=1719553578211.qha3FjrB6NJvJbsiNJSVrSMS3uc4r8fPICNe//+ZPqJrl6gomf7sg4pJy5a9DKlQOHNRnsfezRwRF2Oq5jISfwCv1NEEdBCtgh2NyfHYSjGItbWfnomYQSInJmhQ9lQHIpoO/HolT4dpGPZ2iaPa0DttG2yUBT/c32lnMEbJR+k=|98=0|108=30|553=v06Q_1i0|554=NWFkZjRmYjIxODViYTgwMGVlMGY2YjQxZGI2NmRiNjFmNmVkZGUwMGViZmJlZTcxZGRhYzAxOTNkMjdmNjNiMQ==|10=094|8=FIX.4.4|9=372|35=A|34=13|49=CLIENT1|52=20240628-05:46:18.509|56=DERIBITSERVER|96=1719553578509.f0EbxW6R6rBas0qU7xh6onn5sduThpyq6WhvSCLMpI8r79JxJuH1A6NlioNq3f8/9GlrFcnrO2XvOv8/Z3wqaK8uP3/HHEOP0q3B0SCnnzynuxYM/XUPSIgpO6PyVfYMeTzEDziRyrz60ZXTE3/XlHhYjCDz1erLuiYkfj6zbSE=|98=0|108=30|553=v06Q_1i0|554=ZWQyNzYyYTNhZGJiMTMwOGRkZjYyMWNkYzQxZDRkOGI2NzM5NjQ3ODdjNDgzY2M0MDY2N2RhZTkwODE5N2RlOQ==|10=071|