8=FIX.4.4|9=332|35=A|34=1|49=Alert_Testing|52=20240703-08:30:36.746|56=DERIBITSERVER|96=1719995436746.zr4qHbNZ0gOPh5zx655l5tRcc7EcGUx+Mtv0+zWh3+rCbA5oEngsZzpCzeXK1xqwfl8tvk/CP2mujR2Aa66lFJGnYn2V7GhJ5APEIWuCgHht+iv8bOiJ95O0bIy45Hvw8cbsUC3rXKAtWtXUijmPuDH39mZtpNkPzqJwHVTSyjo=|98=0|108=1|553=v06Q_1i0|554=mIj1Qtf/SrsVyQ6/lFPXyg52uhlDr+mt+Sv9Xubi6NM=|10=201|8=FIX.4.4|9=332|35=A|34=2|49=Alert_Testing|52=20240703-08:31:31.344|56=DERIBITSERVER|96=1719995491344.viweWtoQE9+gQbHYJ9PcmPPdM0RljbVUKigF/hkJW5ncrurcR5Mwwhcmn410q811fNRr5QUzEf4juOp00o7TXD7YMUKqNDcM7egBNk4DSxaz86wOV3fc2boloSMs+1WUAI0tYDavJdR2uYpMWRaq1L572SLLNGdYBbIfDN9v5Cg=|98=0|108=1|553=v06Q_1i0|554=O52k4r2V3voMy9Rm/yEXSX6jieBAsmOZryZBaC9gOTw=|10=018|8=FIX.4.4|9=308|35=A|34=3|49=Alert_Testing|52=20240703-08:31:31.648|56=DERIBITSERVER|96=1719995491648.os82YB0msWa0uQX+hHT+IHdgHNQLk9X5mP/YLqJLSyAgObl0tUtdW04m62bWMyucfISGuqZ2f/E628JRmPa/dT3d+P+BxbxxyXtLP766IepZ40v/9o0ofNn2QQmgo+/tCLiD1rfF+T8vCOfq7lL+PRtvaT4g+ddTZfeLyMG7A3Q=|98=0|108=1|553=v06Q_1i0|554=d3YGpcfglRs2ATu8C0n+|10=188|8=FIX.4.4|9=332|35=A|34=4|49=Alert_Testing|52=20240703-08:31:55.114|56=DERIBITSERVER|96=1719995515114.WAihiYTaW3NTxEQV4Pf/WDC0tlJOQ8Mdqhnq5BCP9Bi9Gm/+er7L7Em2DOuc1EOTpEOPilYvEBGJXmqJ1xNFSEN3t0muz135CmTwWC7Y5iW7Rk6GyMsUN6Y6sWusD7gt9xW8do/IBczjM/o64s3dC1QKyPUU8BKneWChWg2CqYI=|98=0|108=1|553=v06Q_1i0|554=Hmzt68w7dBJY2yu6yYZtuu2Oq7q3Cdkuur9mH7Fperk=|10=145|8=FIX.4.4|9=332|35=A|34=5|49=Alert_Testing|52=20240703-08:31:55.416|56=DERIBITSERVER|96=1719995515416.eYMxO0ajhjNKSamiJV0xyenemg2rS7e1V5Lz+MGHzfLKs8HmwGVoB6ggVsOz+1b0Qdbo10XygAP84aOLnvEj72WD1tzo6Iq++5g15rVZk5M8oCm2/6L4nFrBtofJxrbkiRpOChgow7lbmFDp4U3IN8UETeLmWWeqy2hTKNUMGB8=|98=0|108=1|553=v06Q_1i0|554=AQSs8tqY6Xd5ueaaLg15yAHIsL+OobO2hpsR3qTCbGc=|10=098|8=FIX.4.4|9=332|35=A|34=6|49=Alert_Testing|52=20240703-08:32:59.234|56=DERIBITSERVER|96=1719995579234.IbvKJ4rVjVsuTmls36eeFODXE7DnC3ZACwbjZoGz1kYZFQXN39HV77RuXiLpT+MrBWvrjZmeAvCrWOfc/O0xeEkLz4kQGgkjGOkWhHPiBDLpiy/LuQa4cmJDnC1AIBMaenAf4GiRM9tJStWsLnUjw8idzwZss6ub45Eq/RqP5IM=|98=0|108=1|553=v06Q_1i0|554=yLQin5iZMrE70IEabXkwJAdgaZFp21tqfuxpMtiw/Ms=|10=094|8=FIX.4.4|9=332|35=A|34=7|49=Alert_Testing|52=20240703-08:32:59.535|56=DERIBITSERVER|96=1719995579535.gS8boS/+0oHkrXv0nnQahFbfCpFn9Yl50/9q0aMrraeBXuVhFb62SShH3+DZDsdB0xCWbJ8ERp+X9XVzy20FUjezjTagIljrHkXjk35gQlEY/szh6kLCwfKGkjmqyhqvsStHJL5ofGm9S9MfwoQa8tKOqPE63GCH1TemHM47GfY=|98=0|108=1|553=v06Q_1i0|554=n82wbBtzKzD+X0MHD+R58d1W8seAqLoXMuF9pQZiDr4=|10=078|8=FIX.4.4|9=332|35=A|34=8|49=Alert_Testing|52=20240703-08:37:53.321|56=DERIBITSERVER|96=1719995873321.GHJJuvEk7z70/GGxoo7gDcZEmQmrma6zpOVGLc75rc+8BcOmm+Ced+rLPoqxLvLD7zX7cuRaH3G1GAo34MrVUIcRCpI7p/qU4HLMEjkLhaxWB6xLLXbWTspyPW6mZXiilsxpIcfAnkivCXA+QMKXSpOLvRR1PSYpiAVSZEW7pIo=|98=0|108=1|553=v06Q_1i0|554=nQH3q2xUokXHnUODUBxSt3a/DrJ5YCoRhW+VmRUTkcs=|10=081|8=FIX.4.4|9=332|35=A|34=9|49=Alert_Testing|52=20240703-08:37:53.624|56=DERIBITSERVER|96=1719995873624.zq30NIj19GckJOa2Jr7f3ZWpI9hb1lJO3gV9bi6L2muDDhLHRc1OSzre+S8nGNrZ9BtgSXoD+hAC/vWkKuxn3WQhAM2hBJRpXcMeDvRTnNUd8ZmHk0y3K2F41pu/vobxjs18eoa1x0hmo2Y7+7MpPayOhFSly+SavgBnRVbOQlw=|98=0|108=1|553=v06Q_1i0|554=iBNY6FB9kox7LRJtyRdnk4C92xB1enz7OFe2qgaHz9k=|10=072|8=FIX.4.4|9=333|35=A|34=10|49=Alert_Testing|52=20240703-08:38:29.372|56=DERIBITSERVER|96=1719995909372.PZwGQfGetnmPy0GgmNUyA2zVtZezoKhFKPVSmf5mfijbgdTv8PtfY3dU/MLJyRumP34KHWy+k423ko54OaGegQ/+g7Ye1/dwl7muKPudp3FJc//qF5xwu76cmE6eih75P6HPKieS5zYf1txZ06JZokehybdsQXoTFjuG/wfyaq8=|98=0|108=1|553=v06Q_1i0|554=ZHiTdP6/EjzQZGoxFm2V1UwJmm6G1WSVUPwoBKsuDwI=|10=059|8=FIX.4.4|9=333|35=A|34=11|49=Alert_Testing|52=20240703-08:38:29.674|56=DERIBITSERVER|96=1719995909674.dCNzOaZFWFXrFzYLAsGZx6Ticr53F3I6UFoU6xDQ1YaF1fv8f4uFp+KIIJE4JfX2wL9VnLtAtnW5hvSEAN4V1p2jmplRtRSsBJDkUoWwFZrC/KZM3uAnfHnmW4ZXn+P7uZPbdkhyLbXOj40Qy2ij2byFKqNQy6DMU0oA5RmkV7I=|98=0|108=1|553=v06Q_1i0|554=6rygc9jj/G0Xc/jPl2Xz5y7X4L/eBBpvwVvXpMJtO9s=|10=105|8=FIX.4.4|9=333|35=A|34=12|49=Alert_Testing|52=20240703-08:41:53.073|56=DERIBITSERVER|96=1719996113073.yXggp0ykOetsNV99tFLuVIoGof28s+xIswaG2jVGDr7gmgov/C5iEecXVsRUAnOpufvaisTrtiS38OWrNCOdnrgVhuPzu0y+JyAczGnNFU7d/xWAl7SlthZtBpI6B28A70/U6u1+kPPaEwpA2/FleRxKtwKRNvjt5tvyGxbm7mU=|98=0|108=1|553=v06Q_1i0|554=ubLFbfuJdjgbB3kJSNNuyswqp1t5jAzU6YmYzrV6HUs=|10=061|8=FIX.4.4|9=317|35=A|34=13|49=Alert_Testing|52=20240703-08:41:53.375|56=DERIBITSERVER|96=1719996113375.z07L9wqd11+53jPoKWRW7LPtsFLwLFQwrLJIU6JK7b5YMWn5S9yx9MRFry9Zr+rBm1SsCtYtoHRLB6zK94JhmhJZk0KNP7yf1tuAskbA7YrLH9/pDDYy1SFlMHwpa5nwLclNMTeRD/Ne4M7pyzqrA1R4NYLGiaxs/Hdqz9Gv8C4=|98=0|108=1|553=v06Q_1i0|554=fBJcT+Aro2X6gky93Egp2w6RHA==|10=012|8=FIX.4.4|9=205|35=A|34=14|49=Alert_Testing|52=20240703-08:42:42.331|56=DERIBITSERVER|96=1719996162332.tHCJE5qwJbXA0WKtglynPqoIaaN3os+3x9LU6ffyMmY=|98=0|108=1|553=v06Q_1i0|554=dnkw+mhx90Kzzx/SR+IOLGDb29pBKyZjpDWIFEZBh0E=|10=045|8=FIX.4.4|9=189|35=A|34=15|49=Alert_Testing|52=20240703-08:42:42.636|56=DERIBITSERVER|96=1719996162636.hv0PQdQBU3MIEZOzBwmIukhDteZ9uk7FNMtV6vd10gk=|98=0|108=1|553=v06Q_1i0|554=rrhDQUQSOH2lwRrMvw9vrD9gpA==|10=114|8=FIX.4.4|9=200|35=A|34=1|49=Alert_Testing|52=08060403-55:09:14|56=DERIBITSERVER|96=1719997368126.63aSPy+PA40kO8/jzgRuJrY8ANSwwUh4UX6lIFX5WZY=|98=0|108=1|553=v06Q_1i0|554=mYccdqPcYAfoVSVjgn+YiIwfaUjT059tfQlZxWm7weY=|10=150|8=FIX.4.4|9=200|35=A|34=1|49=Alert_Testing|52=08060403-55:09:14|56=DERIBITSERVER|96=1720000372443.AR/LUDzfh06YlU1C5ThFP9dduixokAOduLz3kIyMI70=|98=0|108=1|553=v06Q_1i0|554=6i/CtJm/kj3yUZp71ueGBGpaMWutONpNMsMHK4lWNI4=|10=150|8=FIX.4.4|9=119|35=5|34=18|49=Alert_Testing|52=20240703-09:52:52.748|56=DERIBITSERVER|58=MsgSeqNum too low, expecting 4 but received 1|10=248|8=FIX.4.4|9=184|35=A|34=1|49=Alert_Testing|52=08060403-55:09:14|56=DERIBITSERVER|96=1720000372749.tTjwIRp+aess7dzXKlkBC5FJcXORQovt7mI7pV06Whc=|98=0|108=1|553=v06Q_1i0|554=xuPpNd2xqMBjH9fCkwaqjIkJFLXT|10=225|8=FIX.4.4|9=200|35=A|34=1|49=Alert_Testing|52=08060403-55:09:14|56=DERIBITSERVER|96=1720000401255.lBsTZsUvn3RU7mDT7imbPsHgb+WsC/3XP1lKjrPyph4=|98=0|108=1|553=v06Q_1i0|554=CjA5Iwg5CVJ5cXxSXbuUGlWWi+srWMbcaeIvbKq5b0c=|10=145|8=FIX.4.4|9=119|35=5|34=21|49=Alert_Testing|52=20240703-09:53:21.557|56=DERIBITSERVER|58=MsgSeqNum too low, expecting 4 but received 1|10=237|8=FIX.4.4|9=200|35=A|34=1|49=Alert_Testing|52=08060403-55:09:14|56=DERIBITSERVER|96=1720000401559.3peUaTYThSdhIf7V6l2jywa0aDbTH+McbXoD1DF+t0I=|98=0|108=1|553=v06Q_1i0|554=n4hke+PGMhBx0keTqXngWA8U1MX/gxtg25xpXlaBH2w=|10=191|8=FIX.4.4|9=205|35=A|34=23|49=Alert_Testing|52=20240703-09:56:25.321|56=DERIBITSERVER|96=1720000585321.B2LdfM4ZcsjDjsdy3AOLTkU1CthTF1AvUz5rIwF/Zeo=|98=0|108=1|553=v06Q_1i0|554=IauNqL5mW05f24nSTVtSbWccG3l8qFj0wDJELrQqvlc=|10=041|8=FIX.4.4|9=205|35=A|34=24|49=Alert_Testing|52=20240703-09:56:25.625|56=DERIBITSERVER|96=1720000585625.luKsXETfpbxVxTTGTXaEbawDRTJBbmU+RqDVwCjAujY=|98=0|108=1|553=v06Q_1i0|554=V7FYA+B2Hf723a9jfLCKtasFq3WJL7/9Xly0Wx/PGjc=|10=179|8=FIX.4.4|9=205|35=A|34=25|49=Alert_Testing|52=20240703-09:56:55.357|56=DERIBITSERVER|96=1720000615357.PF5cZzD1D/nl/EsEdffodgUcQXLnl+geC2FuuogEB5M=|98=0|108=1|553=v06Q_1i0|554=e4Aqfe+oFcs3zN3eVma02k+UqUmKV5/wbYmzXfJ4LjY=|10=014|8=FIX.4.4|9=205|35=A|34=26|49=Alert_Testing|52=20240703-09:56:55.659|56=DERIBITSERVER|96=1720000615659.D6OlfjIVizS0lBLBhj83JcS98Vtn4dNxvLPxTQXWJk4=|98=0|108=1|553=v06Q_1i0|554=n6yIUzy+67Su2Sm5bcea7jFg6VKv1VxLT/e1d8oqk4k=|10=231|8=FIX.4.4|9=193|35=A|34=27|49=Alert_Testing|52=20240703-09:57:25.384|56=DERIBITSERVER|96=1720000645384.KT4ZbKjspr8Jt36s1eerBMeFN4Ht9fd5HE59mZqC3Ps=|98=0|108=1|553=v06Q_1i0|554=0eyCpsbRBKUcLIpvy3jGK0q33Nv5Bw==|10=137|8=FIX.4.4|9=205|35=A|34=28|49=Alert_Testing|52=20240703-09:57:25.686|56=DERIBITSERVER|96=1720000645686.N82+TFExYnztGNuAhOycjL5h/ThCsR/jygg6cXIHl8Q=|98=0|108=1|553=v06Q_1i0|554=1c0kG0M/pk7i38+BA1aoZmZXf4rtZ9UfrvZWL6GZrl0=|10=134|8=FIX.4.4|9=205|35=A|34=29|49=Alert_Testing|52=20240703-09:57:55.415|56=DERIBITSERVER|96=1720000675415.JdDFrKgarvlYTrHbgJJjCo8MJK62/hZ2JP2qT4TeTzM=|98=0|108=1|553=v06Q_1i0|554=4PdBau+9WGFtPYH7af3l5IMVS4e7gSe3WloNQ0TYU1Q=|10=219|8=FIX.4.4|9=205|35=A|34=30|49=Alert_Testing|52=20240703-09:57:55.717|56=DERIBITSERVER|96=1720000675717.kQWPBkxwR0EgblItezU3A9wGNQQ/r0Xk1QfxGDZlQMM=|98=0|108=1|553=v06Q_1i0|554=EwrlhANDUK7xfNGHgpBR2Ch66FhBoqRWzoIhKm6S3fo=|10=055|8=FIX.4.4|9=205|35=A|34=31|49=Alert_Testing|52=20240703-09:58:25.446|56=DERIBITSERVER|96=1720000705446.kbjS1MCmdmLsCv6S3bKgIp0N9NZS62hPkhrv8SIc4i0=|98=0|108=1|553=v06Q_1i0|554=wuxTdkem4mLf34SijIL1A8DyxbIPm7m2RobPpEfAHdM=|10=014|8=FIX.4.4|9=205|35=A|34=32|49=Alert_Testing|52=20240703-09:58:25.747|56=DERIBITSERVER|96=1720000705747.5E7TLQQtLbjtEMkG7nDAp7H28bU7lsob61HyD4A29Kc=|98=0|108=1|553=v06Q_1i0|554=iT1eO6/NYZh9Ox7MLkWYdGrFRHAsTzryQp7u49I3sOs=|10=235|8=FIX.4.4|9=205|35=A|34=33|49=Alert_Testing|52=20240703-09:58:55.476|56=DERIBITSERVER|96=1720000735476.ecdLP0vUE06mv+uZR+D3rzR8g0M8LGh9WDRs0MsmQUo=|98=0|108=1|553=v06Q_1i0|554=U87Ghv/hwLxPE75EYz1iPioiUWiNMVySD93kcqWp95s=|10=141|8=FIX.4.4|9=205|35=A|34=34|49=Alert_Testing|52=20240703-09:58:55.781|56=DERIBITSERVER|96=1720000735781.191Oa0oM2IGDVbaFj9nH8T35nITW+9wpksibYcxS9PE=|98=0|108=1|553=v06Q_1i0|554=KQT14gjuiljEkhb4VnsVKiGKf25CzkA0dgNnl2wdyOA=|10=171|8=FIX.4.4|9=205|35=A|34=35|49=Alert_Testing|52=20240703-09:59:25.500|56=DERIBITSERVER|96=1720000765500.XExYKEMOIA3rozd6f7bLSq33lwEb2j4iUunasZBQ0uQ=|98=0|108=1|553=v06Q_1i0|554=AveMExylwtFFNyyb8RFpSGpJOJw3ndnrWNMYLnaWNps=|10=071|8=FIX.4.4|9=205|35=A|34=36|49=Alert_Testing|52=20240703-09:59:25.801|56=DERIBITSERVER|96=1720000765801.7vNTk+lDc2Cib80tD2EthJ+jDu0E0h2e0Xih9uMnOq8=|98=0|108=1|553=v06Q_1i0|554=ljlRgWu6TuvexvXlUBz3cWkIGj/WXsG2xh7/f0SUIG4=|10=171|8=FIX.4.4|9=205|35=A|34=37|49=Alert_Testing|52=20240703-09:59:55.541|56=DERIBITSERVER|96=1720000795541.JxUtDIiBsfCt6EbB3/mgWdl4zFCuGRBk/mlhx50+hZE=|98=0|108=1|553=v06Q_1i0|554=0PRx7QTu4Yg6nBUiEw3WVP1GiHTiDZCsGQJwnqpm7yU=|10=254|8=FIX.4.4|9=205|35=A|34=38|49=Alert_Testing|52=20240703-09:59:55.844|56=DERIBITSERVER|96=1720000795845.E4Bma6YwEJcI2uMvvoypeetoNv/q75AYAlzwO3LUE6k=|98=0|108=1|553=v06Q_1i0|554=KqdQ+vw0/83t4kDPvChzMWPdUG91iUBr7nofQxYknfU=|10=174|8=FIX.4.4|9=205|35=A|34=39|49=Alert_Testing|52=20240703-10:00:25.573|56=DERIBITSERVER|96=1720000825573.EyZa35suyrUX3xWbo1wrioxh6Y/u/LRBKHTNcMfIkrM=|98=0|108=1|553=v06Q_1i0|554=KkTbdvckQ9hHewSMhPWnIZTsLUt4itqUGd7vqnHZYMw=|10=209|8=FIX.4.4|9=205|35=A|34=40|49=Alert_Testing|52=20240703-10:00:25.875|56=DERIBITSERVER|96=1720000825875.mDKqGiwf5sH9Z+Bf8okl31RY2QiSKfkSiocGzXx9Y58=|98=0|108=1|553=v06Q_1i0|554=knqhMqzdp4xLjsiiBEwZp99GARvE3aKL0DBsfEdc550=|10=036|8=FIX.4.4|9=207|35=A|34=1|49=Alert_Testing|52=08060403-55:09:14|56=DERIBITSERVER|96=1709791993000.dGVzdF9kZXJpYml0X3Rlc3RuZXRfaW5jcmVtZW50YWxfMDAwMDA=|98=0|108=1|553=API-KEY|554=596Z1EYCfEiEWKYkxW4BEQ+0thmtigjuYza0lgKI93A=|10=046|8=FIX.4.4|9=70|35=5|34=42|49=Alert_Testing|52=20240703-10:26:36.695|56=DERIBITSERVER|10=036|8=FIX.4.4|9=207|35=A|34=1|49=Alert_Testing|52=08060403-55:09:14|56=DERIBITSERVER|96=1709791993000.dGVzdF9kZXJpYml0X3Rlc3RuZXRfaW5jcmVtZW50YWxfMDAwMDA=|98=0|108=1|553=API-KEY|554=596Z1EYCfEiEWKYkxW4BEQ+0thmtigjuYza0lgKI93A=|10=046|8=FIX.4.4|9=207|35=A|34=1|49=Alert_Testing|52=08060403-55:09:14|56=DERIBITSERVER|96=1709791993000.dGVzdF9kZXJpYml0X3Rlc3RuZXRfaW5jcmVtZW50YWxfMDAwMDA=|98=0|108=1|553=API-KEY|554=596Z1EYCfEiEWKYkxW4BEQ+0thmtigjuYza0lgKI93A=|10=046|8=FIX.4.4|9=70|35=5|34=45|49=Alert_Testing|52=20240703-10:27:06.712|56=DERIBITSERVER|10=027|8=FIX.4.4|9=207|35=A|34=1|49=Alert_Testing|52=08060403-55:09:14|56=DERIBITSERVER|96=1709791993000.dGVzdF9kZXJpYml0X3Rlc3RuZXRfaW5jcmVtZW50YWxfMDAwMDA=|98=0|108=1|553=API-KEY|554=596Z1EYCfEiEWKYkxW4BEQ+0thmtigjuYza0lgKI93A=|10=046|8=FIX.4.4|9=205|35=A|34=47|49=Alert_Testing|52=20240703-12:11:23.952|56=DERIBITSERVER|96=1720008683952.mJGcshjtlhCjtGhNTaiiPLE58IpE5T1bfwpMFb9I50M=|98=0|108=1|553=v06Q_1i0|554=uu3vsQxkMr6rySJoo8TiWfJ6wRDpGP9kiD7FaVAGBHc=|10=139|8=FIX.4.4|9=205|35=A|34=48|49=Alert_Testing|52=20240703-12:11:24.254|56=DERIBITSERVER|96=1720008684254.X5H7bSpteqwMu8HOKHfACPtG/lAoab0Wn5nKwAz6fVw=|98=0|108=1|553=v06Q_1i0|554=EavQDXQCtcU46JB2KTzxGfRNOI/DNexPwmq0tR9QXWQ=|10=255|8=FIX.4.4|9=205|35=A|34=49|49=Alert_Testing|52=20240703-12:11:53.980|56=DERIBITSERVER|96=1720008713980.Tv4LLWo+3mqATlnoxnWCMo4WLPO+7Sa+V6fhqh3Z6gk=|98=0|108=1|553=v06Q_1i0|554=V+i1EvDtKGTCepmA5RGRnq0tYLm/NF7jwgwL0b7oDEg=|10=147|8=FIX.4.4|9=205|35=A|34=50|49=Alert_Testing|52=20240703-12:11:54.281|56=DERIBITSERVER|96=1720008714281.lP3ukwfnzlLbMYQ1ViKNOiSR9gD1QhG8NUfF8WqXLxk=|98=0|108=1|553=v06Q_1i0|554=VTYS3Dowfpi8/5PrSxsb01IgHFOikX7oKigPmhMzcOk=|10=182|8=FIX.4.4|9=249|35=A|34=51|49=Alert_Testing|52=20240703-12:12:35.820|56=DERIBITSERVER|96=1720008755820.SFELGE0tZrv9u06/ouMwA1aXXHe9JgFpivFOUKBHtr8RlCXujpYTb+dc7NchRmwPKN5iqmDGAMtZBfuFF5GDxg==|98=0|108=1|553=v06Q_1i0|554=9fBjKeP/mmGakYlKoGBKnratortC67n0l6F4s/GTVps=|10=247|8=FIX.4.4|9=249|35=A|34=52|49=Alert_Testing|52=20240703-12:12:36.122|56=DERIBITSERVER|96=1720008756122.7Qe3UqJn3K0nxp5JVlZ7GqYUK4Nu2VM0UwxN4MeztxBjSPIQRmIEpGhQ61c8dNaqcKRPn12IYuIN/ptLFEhPcQ==|98=0|108=1|553=v06Q_1i0|554=v81m5JZ4hMPV01rUGpYuetmHE7lUxNMnE5eh16C/Lh8=|10=127|8=FIX.4.4|9=249|35=A|34=53|49=Alert_Testing|52=20240703-12:13:07.098|56=DERIBITSERVER|96=1720008787098./Mi088DMreQqWz8q4YUTStDy7rQezWWCh75mFRYn5xoxzoO96mKsj6aANpf+uPuN8OlYt66QjTjldCKGVFlgCQ==|98=0|108=1|553=v06Q_1i0|554=vWI1ZYVqTEy5LLQ9dVhP9eOc6bsMb5bURbp8zBLg7SI=|10=219|8=FIX.4.4|9=233|35=A|34=54|49=Alert_Testing|52=20240703-12:13:07.401|56=DERIBITSERVER|96=1720008787401.bzH3lxsIo7GyrcTKseTk4Op5i/hNmWU+P0Ssv2TUYnFudXwKA8I3FdqnmCIqwFgzbYf+icaNvbbH96+g4fdecw==|98=0|108=1|553=v06Q_1i0|554=AfgUqtgVbOUqDMd9bgN45U5NCw==|10=051|8=FIX.4.4|9=249|35=A|34=55|49=Alert_Testing|52=20240703-12:16:00.003|56=DERIBITSERVER|96=1720008960003.ygaKfF+Rrw2BK+uXWhSXlUXyBSJDsaJoIK/nmL12ac0C5lklSOmChkgAIsrA7gYVV6NJ3GNrJsp08Oh4CFp5Rg==|98=0|108=1|553=v06Q_1i0|554=bMjA+Q8uZqlXwdjqXftGZ//WeUeQlbT3UTXLar06Ko4=|10=065|8=FIX.4.4|9=249|35=A|34=56|49=Alert_Testing|52=20240703-12:16:00.306|56=DERIBITSERVER|96=1720008960306.SHEmcqy+5mPj9RXwEetJozw1D3mKOT/uje2E1SdSxqfX5gqIRKQK+iqJiyfjJ6wocMvxWigL+aBVwcYHrZXeng==|98=0|108=1|553=v06Q_1i0|554=sAsUGplsGdr7ZHdDMGKTGrkb3ZcxrJAOdwc7/8kcPYg=|10=103|8=FIX.4.4|9=249|35=A|34=57|49=Alert_Testing|52=20240703-12:16:30.031|56=DERIBITSERVER|96=1720008990031.nFio6Y00pDQMdJf+vemtZAcwZo0HaS0xc+0DI/BZX1FknXlXMDxBSkltXEbIlUIJBFBvNczHQVxIq5WoIvIT5g==|98=0|108=1|553=v06Q_1i0|554=YIjSUj7nHVcBMnQ1TOO63yJESVfHUFwhwKX26i3QvBY=|10=038|8=FIX.4.4|9=249|35=A|34=58|49=Alert_Testing|52=20240703-12:16:30.333|56=DERIBITSERVER|96=1720008990333.S/uL33iXEFwo1xf+K2yJuQoqH3PIotImITsnDHY7xTrTxzbPEunNCDPV4TMYOEEsWQ2JGAyQTKS2QESlwZUnLw==|98=0|108=1|553=v06Q_1i0|554=2zL5Io/tidEnYUQ1pPxbcpd1bXKtMFm16XEv7BVSYHs=|10=192|